:020000040800F2
:10000000000001200152000851520008515200081E
:1000100051520008515200085152000800000000DF
:100020000000000000000000000000005152000825
:10003000515200080000000051520008E54000083D
:100040005152000851520008515200085152000804
:1000500051520008515200085152000851520008F4
:10006000515200085152000851520008F140000856
:1000700051520008515200085152000851520008D4
:1000800051520008515200085152000851520008C4
:1000900051520008515200085152000851520008B4
:1000A00051520008515200085152000851520008A4
:1000B0005152000851520008515200085152000894
:1000C0005152000851520008515200085152000884
:1000D0005152000851520008515200085152000874
:1000E0005152000851520008515200085152000864
:1000F0005152000851520008515200085152000854
:100100005152000800000000000000005152000899
:100110005152000851520008515200085152000833
:1001200001410008114100085152000851520008D5
:1001300021410008515200080000000000000000AA
:1001400051520008515200085152000800000000AE
:10015000000000000000000000000000000000009F
:1001600051520008515200085152000851520008E3
:1001700051520008515200085152000851520008D3
:100180005152000851520008000000000000000019
:0401900051520008C0
:10019800044B05481B1A062B02D9044B03B1184718
:1001A800704700BFA7000020A40000200000000046
:1001B80005490648091A891001EBD171491002D086
:1001C800034B03B118477047A4000020A400002087
:1001D8000000000010B5064C237843B9FFF7D8FF9C
:1001E800044B13B10448AFF300800123237010BD02
:1001F800A8000020000000002476000808B5084B7D
:100208001BB108480849AFF300800848036813B9D0
:10021800BDE80840CCE7064B002BF9D09847F7E734
:100228000000000024760008AC000020A400002094
:100238000000000081F0004102E000BF83F00043AD
:1002480030B54FEA41044FEA430594EA050F08BF69
:1002580090EA020F1FBF54EA000C55EA020C7FEA2D
:10026800645C7FEA655C00F0E2804FEA5454D4EBAA
:100278005555B8BF6D420CDD2C4480EA020281EA74
:10028800030382EA000083EA010180EA020281EAAC
:100298000303362D88BF30BD11F0004F4FEA0131FE
:1002A8004FF4801C4CEA113102D0404261EB41010D
:1002B80013F0004F4FEA03334CEA133302D0524293
:1002C80063EB430394EA050F00F0A780A4F101044F
:1002D800D5F1200E0DDB02FA0EFC22FA05F2801889
:1002E80041F1000103FA0EF2801843FA05F359416F
:1002F8000EE0A5F120050EF1200E012A03FA0EFCEE
:1003080028BF4CF0020C43FA05F3C01851EBE37117
:1003180001F0004507D54FF0000EDCF1000C7EEB34
:1003280000006EEB0101B1F5801F1BD3B1F5001F72
:100338000CD349085FEA30004FEA3C0C04F1010491
:100348004FEA445212F5800F80F09A80BCF1004FBA
:1003580008BF5FEA500C50F1000041EB045141EA3C
:10036800050130BD5FEA4C0C404141EB010111F43D
:10037800801FA4F10104E9D191F0000F04BF0146E8
:100388000020B1FA81F308BF2033A3F10B03B3F1C6
:1003980020020CDA0C3208DD02F1140CC2F10C0256
:1003A80001FA0CF021FA02F10CE002F11402D8BFB4
:1003B800C2F1200C01FA02F120FA0CFCDCBF41EA80
:1003C8000C019040E41AA2BF01EB0451294330BD4F
:1003D8006FEA04041F3C1CDA0C340EDC04F114042C
:1003E800C4F1200220FA04F001FA02F340EA030003
:1003F80021FA04F345EA030130BDC4F10C04C4F149
:10040800200220FA02F001FA04F340EA0300294628
:1004180030BD21FA04F0294630BD94F0000F83F472
:10042800801306BF81F480110134013D4EE77FEA55
:10043800645C18BF7FEA655C29D094EA050F08BFA1
:1004480090EA020F05D054EA000C04BF1946104682
:1004580030BD91EA030F1EBF0021002030BD5FEAC6
:10046800545C05D14000494128BF41F0004130BDEE
:1004780014F580043CBF01F5801130BD01F0004542
:1004880045F0FE4141F470014FF0000030BD7FEAB5
:10049800645C1ABF194610467FEA655C1CBF0B46B0
:1004A800024650EA013406BF52EA033591EA030FC7
:1004B80041F4002130BD00BF90F0000F04BF0021BF
:1004C800704730B54FF4806404F132044FF00005F2
:1004D8004FF0000150E700BF90F0000F04BF00216B
:1004E800704730B54FF4806404F1320410F00045D1
:1004F80048BF40424FF000013EE700BF42004FEACC
:10050800E2014FEA31014FEA02701FBF12F07F4348
:1005180093F07F4F81F06051704792F0000F14BF45
:1005280093F07F4F704730B54FF4607401F0004589
:1005380021F0004120E700BF50EA010208BF7047E0
:1005480030B54FF000050AE050EA010208BF7047D5
:1005580030B511F0004502D5404261EB41014FF43E
:10056800806404F132045FEA915C3FF4DCAE4FF042
:1005780003025FEADC0C18BF03325FEADC0C18BF29
:10058800033202EBDC02C2F1200300FA03FC20FA7A
:1005980002F001FA03FE40EA0E0021FA02F11444C7
:1005A800C1E600BF70B54FF0FF0C4CF4E06C1CEADC
:1005B80011541DBF1CEA135594EA0C0F95EA0C0F51
:1005C80000F0DEF82C4481EA030621EA4C5123EAC4
:1005D8004C5350EA013518BF52EA033541F48011F3
:1005E80043F4801338D0A0FB02CE4FF00005E1FBA6
:1005F80002E506F00042E0FB03E54FF00006E1FBF0
:1006080003569CF0000F18BF4EF0010EA4F1FF0432
:10061800B6F5007F64F5407404D25FEA4E0E6D4172
:1006280046EB060642EAC62141EA55514FEAC52083
:1006380040EA5E504FEACE2EB4F1FD0C88BFBCF5FF
:10064800E06F1ED8BEF1004F08BF5FEA500E50F1B0
:10065800000041EB045170BD06F0004646EA010176
:1006680040EA020081EA0301B4EB5C04C2BFD4EBA8
:100678000C0541EA045170BD41F480114FF0000EA1
:10068800013C00F3AB8014F1360FDEBF002001F00F
:10069800004170BDC4F10004203C35DA0C341BDC89
:1006A80004F11404C4F1200500FA05F320FA04F05B
:1006B80001FA05F240EA020001F0004221F000418F
:1006C80010EBD37021FA04F642EB06015EEA430E02
:1006D80008BF20EAD37070BDC4F10C04C4F1200532
:1006E80000FA04F320FA05F001FA04F240EA0200E5
:1006F80001F0004110EBD37041F100015EEA430EB6
:1007080008BF20EAD37070BDC4F1200500FA05F2D5
:100718004EEA020E20FA04F301FA05F243EA020354
:1007280021FA04F001F0004121FA04F220EA020063
:1007380000EBD3705EEA430E08BF20EAD37070BDA9
:1007480094F0000F0FD101F00046400041EB010189
:1007580011F4801F08BF013CF7D041EA060195F06B
:10076800000F18BF704703F00046520043EB030325
:1007780013F4801F08BF013DF7D043EA0603704712
:1007880094EA0C0F0CEA135518BF95EA0C0F0CD01D
:1007980050EA410618BF52EA4306D1D181EA030163
:1007A80001F000414FF0000070BD50EA410606BF5D
:1007B8001046194652EA430619D094EA0C0F02D1A2
:1007C80050EA013613D195EA0C0F05D152EA0336E7
:1007D8001CBF104619460AD181EA030101F0004105
:1007E80041F0FE4141F470014FF0000070BD41F04E
:1007F800FE4141F4780170BD70B54FF0FF0C4CF428
:10080800E06C1CEA11541DBF1CEA135594EA0C0F46
:1008180095EA0C0F00F0A7F8A4EB050481EA030E93
:1008280052EA03354FEA013100F088804FEA03337A
:100838004FF0805545EA131343EA12634FEA022248
:1008480045EA111545EA10654FEA00260EF0004109
:100858009D4208BF964244F1FD0404F5407402D25B
:100868005B084FEA3202B61A65EB03055B084FEAEC
:1008780032024FF480104FF4002CB6EB020E75EBE9
:10088800030E22BFB61A754640EA0C005B084FEA11
:100898003202B6EB020E75EB030E22BFB61A75468E
:1008A80040EA5C005B084FEA3202B6EB020E75EBD9
:1008B800030E22BFB61A754640EA9C005B084FEA51
:1008C8003202B6EB020E75EB030E22BFB61A75465E
:1008D80040EADC0055EA060E18D04FEA051545EA4D
:1008E80016754FEA06164FEAC30343EA52734FEAF6
:1008F800C2025FEA1C1CC0D111F4801F0BD141EA6F
:1009080000014FF000004FF0004CB6E711F4801FD3
:1009180004BF01430020B4F1FD0C88BFBCF5E06FB3
:100928003FF6AFAEB5EB030C04BFB6EB020C5FEAC3
:10093800500C50F1000041EB045170BD0EF0004E18
:100948004EEA113114EB5C04C2BFD4EB0C0541EA4A
:10095800045170BD41F480114FF0000E013C90E647
:1009680045EA060E8DE60CEA135594EA0C0F08BF0B
:1009780095EA0C0F3FF43BAF94EA0C0F0AD150EA0A
:1009880001347FF434AF95EA0C0F7FF425AF10469D
:1009980019462CE795EA0C0F06D152EA03353FF4C5
:1009A800FDAE1046194622E750EA410618BF52EA42
:1009B80043067FF4C5AE50EA41047FF40DAF52EA16
:1009C80043057FF4EBAE12E74FF0FF3C06E000BFB3
:1009D8004FF0010C02E000BF4FF0010C4DF804CDC0
:1009E8004FEA410C7FEA6C5C4FEA430C18BF7FEA80
:1009F8006C5C1BD001B050EA410C0CBF52EA430CAE
:100A080091EA030F02BF90EA020F0020704710F12D
:100A1800000F91EA030F58BF994208BF90422CBFBC
:100A2800D8176FEAE37040F0010070474FEA410CB5
:100A38007FEA6C5C02D150EA013C07D14FEA430CD3
:100A48007FEA6C5CD6D152EA033CD3D05DF8040B44
:100A5800704700BF8446104662468C461946634676
:100A680000E000BF01B5FFF7B7FF002848BF10F14D
:100A7800000F01BD4DF808EDFFF7F4FF0CBF012092
:100A880000205DF808FB00BF4DF808EDFFF7EAFF0E
:100A980034BF012000205DF808FB00BF4DF808EDC9
:100AA800FFF7E0FF94BF012000205DF808FB00BFBE
:100AB8004DF808EDFFF7CEFF94BF012000205DF848
:100AC80008FB00BF4DF808EDFFF7C4FF34BF012055
:100AD80000205DF808FB00BF4FEA410212F5001242
:100AE80015D211D56FF47873B3EB625212D94FEA6D
:100AF800C12343F0004343EA505311F0004F23FA57
:100B080002F018BF404270474FF00000704750EAAB
:100B1800013005D111F0004008BF6FF00040704768
:100B28004FF00000704700BF7BB972B90029BEBF03
:100B380000204FF0004106E008BF00281CBF6FF0FE
:100B480000414FF0FF3000F03BB882B0EC462DE991
:100B5800005000F005F8DDF804E002B00CBC704766
:100B68002DE9F041069C154606460F46984600F0CA
:100B780029F805FB01F300FB0838A5FB0023B21A8E
:100B8800434467EB0303C4E90023BDE8F08100BFD9
:100B98002DE9F041069C904606460F461D4600F09A
:100BA8005FF900FB05F5A0FB082308FB0155B21A05
:100BB8002B4467EB0303C4E90023BDE8F08100BFC1
:100BC800704700BF00292DE9F043C0F2A680002637
:100BD800002BC0F29C80884694469E4615460446E3
:100BE8000F46002B3DD18A4259D9B2FA82F33BB164
:100BF800C3F120029F4020FA02F29D4017439C4017
:100C0800290C220CB7FBF1FEA8B201FB1E7742EAC1
:100C1800074700FB0EF3BB420AD97F190EF1FF32DA
:100C280080F00581BB4240F20281AEF1020E2F44F2
:100C3800FF1AA4B2B7FBF1F301FB137744EA0747A5
:100C480000FB03F0B84208D97F1903F1FF3280F0A6
:100C5800F080B84240F2ED80023B43EA0E430022A6
:100C680003E08B420FD900221346341C18BF01241D
:100C780060424FF0000565EB4501584051400019AE
:100C88006941BDE8F083B3FA83F2002A40F0868018
:100C98008B4202D3844500F2DB800123E5E712B9D9
:100CA8000123B3FBF2F5B5FA85F000283BD1781B98
:100CB8004FEA154E1FFA85FC0122B0FBFEF8210C05
:100CC8000EFB180741EA07470CFB08F3BB4207D99C
:100CD8007F1908F1FF3102D2BB4200F2BD8088467D
:100CE800FF1AA4B2B7FBFEF30EFB137744EA0747DB
:100CF8000CFB03FCBC4507D97F1903F1FF3102D275
:100D0800BC4500F2A7800B4643EA0843ADE75242D0
:100D18006FEA060663EB43035DE7404261EB41017E
:100D28004FF0FF3654E7C0F1200224FA02F107FA27
:100D380000F385404FEA154ED7401943B7FBFEF242
:100D48000B0C0EFB12771FFA85FC43EA07430CFBDA
:100D580002F79F4204FA00F407D95B1902F1FF3049
:100D680074D29F4272D9023A2B44DF1B89B2B7FB77
:100D7800FEF80EFB187341EA03430CFB08F79F4289
:100D880008D95B1908F1FF315CD29F425AD9A8F102
:100D980002082B44D81B48EA02428EE7C2F120031E
:100DA8002CFA03F10EFA02FE20FA03F741EA0E0EBE
:100DB80008FA02F028FA03F14FEA1E453843B1FB5E
:100DC800F5F8030C05FB18111FFA8EF743EA0141E9
:100DD80007FB08F38B420CFA02FC09D911EB0E0150
:100DE80008F1FF3930D28B422ED9A8F1020871449C
:100DF800C91A80B2B1FBF5F305FB131140EA0141B2
:100E080007FB03F78F4208D911EB0E0103F1FF30FE
:100E180016D28F4214D9023B714443EA0843C91BD6
:100E2800A3FB0C89494509D305D000221DE7964646
:100E3800FEE6134611E794404445F6D2013BF4E739
:100E48000346EAE78846A5E7C846D1E702468CE7A5
:100E580013460AE7023B57E7A8F102082F443FE789
:100E68002DE9F041002B44D18A42154604464FD95A
:100E7800B2FA82F70E464FB1C7F12003B94020FA03
:100E880003F602FA07F50E4300FA07F44FEA154E87
:100E9800230CB6FBFEF0AFB20EFB106143EA014330
:100EA80007FB00F1994209D95B1900F1FF3280F084
:100EB800EC80994240F2E98002382B445A1AA4B2D5
:100EC800B2FBFEF30EFB132244EA024207FB03F7D0
:100ED800974208D9521903F1FF3180F0D880974220
:100EE80040F2D580023B43EA004000263146BDE887
:100EF800F0818B4247D8B3FA83F6002E48D18B4253
:100F080002D3824200F2CD8001203146BDE8F08153
:100F180012B90125B5FBF2F5B5FA85F8B8F1000F5D
:100F280077D14A1B4FEA154EAFB20126B2FBFEF04D
:100F3800230C0EFB102143EA014107FB00F38B420F
:100F480007D9491900F1FF3202D28B4200F2BA8068
:100F58001046C91AA4B2B1FBFEF30EFB131144EA02
:100F6800014407FB03F7A74208D9641903F1FF32CC
:100F780080F08F80A74240F28C80023B43EA004019
:100F88003146BDE8F081002630463146BDE8F081A3
:100F9800C6F1200422FA04F5B3402B4320FA04FCDE
:100FA80001FA06F721FA04F54FEA134E4CEA07074F
:100FB800B5FBFEF8390C0EFB18551FFA83FC41EA05
:100FC80005450CFB08F1A94202FA06F204D9ED180E
:100FD80008F1FF3467D3A0466D1ABFB2B5FBFEF423
:100FE8000EFB145547EA05410CFB04FC8C4504D95B
:100FF800C91804F1FF355CD32C4644EA0844CCEB0D
:101008000101A4FB0223994248D344D0204600267C
:101018006CE7C8F1200401FA08F305FA08F520FA8C
:1010280004F7E1404FEA154E1F43B1FBFEF63A0CB8
:101038000EFB16111FFA85FC42EA01430CFB06F26F
:101048009A4200FA08F407D95B1906F1FF3137D242
:101058009A4235D9023E2B449B1ABFB2B3FBFEF02D
:101068000EFB103347EA03430CFB00F1994207D902
:101078005B1900F1FF3221D299421FD902382B4463
:101088005A1A40EA0646674650E7104616E70B46E6
:1010980029E7134672E7B0409042B7D2601E002697
:1010A80024E7304622E7A94295D9A8F102081D4451
:1010B80092E78C45A0D9023C19449EE71046DFE729
:1010C8000E46C9E70238294443E700BF00B58BB094
:1010D80048484FF0A04303604FF480334360002337
:1010E800836001220261C26143624FF400610163BF
:1010F8004FF40071C162C360072101624263082294
:1011080042618361836301F0D1FB18B13A486521DC
:1011180002F024FF0AA9002341F80C3D354802F0EB
:101128003BF818B134486D2102F018FF01230193F0
:1011380002930023049307220392059306932D48F4
:1011480001A901F05BFE18B12B487A2102F006FFD5
:10115800022301930293274801A901F04FFE18B119
:101168002548832102F0FAFE062301930323029304
:10117800204801A901F042FE18B11F488C2102F055
:10118800EDFE08230193042302931A480DEB030193
:1011980001F034FE18B11848952102F0DFFE09234A
:1011A800019305230293134801A901F027FE18B102
:1011B80011489E2102F0D2FE0E23019306230293CA
:1011C8000C4801A901F01AFE18B10B48A72102F03A
:1011D800C5FE1023019307230293064801A901F0D5
:1011E8000DFE18B10448B02102F0B8FE0BB05DF84E
:1011F80004FB00BF1C3300204076000800B587B010
:101208004248434B03604FF48033436000238360BC
:1012180001220261C26143624FF4006101634FF42D
:101228000071C162C3600721016242630822426102
:101238008361836301F03AFB18B13648CB2102F091
:101248008DFE0323009301230193002303930722B8
:101258000292049305932D48694601F0CFFD18B119
:101268002C48D82102F07AFE01230093022301932F
:101278002648694601F0C2FD18B12648E12102F06E
:101288006DFE04230093032301932048694601F06F
:10129800B5FD18B11F48EA2102F060FE052300934E
:1012A800042301931948694601F0A8FD18B11948AB
:1012B800F32102F053FE07230093052301931348FB
:1012C800694601F09BFD18B11248FC2102F046FE68
:1012D8000C230093062301930C48694601F08EFD08
:1012E80020B10C4840F2051102F038FE07230193A3
:1012F8000648694601F082FD20B1064840F20D110A
:1013080002F02CFE07B05DF804FB00BF8432002019
:10131800000100504076000800B58BB049484A4BA0
:1013280003604FF48033436000238360012202612D
:10133800C26143624FF4006101634FF40071C162FE
:10134800C3600721016242630822426183618363AB
:1013580001F0ACFA20B13D4840F2291102F0FEFD3F
:101368000AA9002341F80C3D364801F015FF20B1C9
:10137800364840F2311102F0F1FD01230193029346
:101388000023049307220392059306932D4801A98D
:1013980001F034FD20B12D484FF49F7102F0DEFDBD
:1013A8000C23019302230293264801A901F026FD8C
:1013B80020B1264840F2471102F0D0FD05230193E1
:1013C800032302931F4801A901F018FD20B11F480B
:1013D8004FF4A87102F0C2FD122301930423029373
:1013E80018480DEB030101F009FD20B1174840F240
:1013F800591102F0B3FD05230293124801A901F027
:10140800FDFC20B1114840F2611102F0A7FD06234E
:1014180002930C4801A901F0F1FC20B10B4840F2FD
:10142800691102F09BFD07230293064801A901F008
:10143800E5FC20B1054840F2711102F08FFD0BB0B8
:101448005DF804FB7033002000040050407600086B
:1014580000B587B04648474B03604FF4803343607C
:101468000023836001220261C26143624FF48061FC
:1014780001634FF40071C162C360072101624263D6
:10148800082242618361836301F010FA20B13A486F
:101498004FF4C67102F062FD032300930123019308
:1014A8000023039307220292049305933048694668
:1014B80001F0A4FC20B1304840F2991102F04EFD31
:1014C80004230093022301932948694601F096FCFE
:1014D80020B129484FF4D17102F040FD0523009353
:1014E800032301932248694601F088FC20B1224871
:1014F80040F2AB1102F032FD032300930423019361
:101508001B48694601F07AFC20B11B484FF4DA7198
:1015180002F024FD0423009305230193144869462F
:1015280001F06CFC20B1144840F2BD1102F016FD28
:1015380005230093062301930D48694601F05EFCDC
:1015480020B10D484FF4E37102F008FD0323009326
:10155800072301930648694601F050FC20B106486C
:1015680040F2CF1102F0FAFC07B05DF804FB00BFAF
:1015780008340020000500504076000870B58AB095
:1015880004460368B3F1A04F48D1874A1368013372
:101598001360012B09D1854B5A6942F080525A6178
:1015A8005B6903F080530193019B0D230593032688
:1015B8000696002507957E4805A902F01DF90596AF
:1015C800069607954FF0904005A902F015F94FF4DB
:1015D8000063059306960795764805A902F00CF96D
:1015E8007548764B0360456085608023C3604FF47F
:1015F800807303614FF480634361202383614FF458
:101608000053C36102F0CCFD20B16D4840F20921BE
:1016180002F0A4FC684BE3635C62C2E0694A93424F
:1016280048D1614A136801331360012B09D15F4B1C
:101638005A6942F080525A615B6903F08053029301
:10164800029B122305930326069600250795584802
:1016580005A902F0D1F8D0230593069607954FF017
:10166800904005A902F0C8F804230593069607954B
:10167800504805A902F0C0F85348544B0360456030
:1016880085608023C3604FF4807303614FF48063E7
:101698004361202383614FF40053C36102F080FD4E
:1016A80020B147484FF4107102F058FC464BE363F1
:1016B8005C6276E0464A934238D1464A1368013361
:1016C8001360012B09D1394B5A6942F000525A6113
:1016D8005B6903F000530393039B42F203030593F2
:1016E8000323069300250795324805A902F084F8DC
:1016F80039483A4B0360456085608023C3604FF4E6
:10170800807303614FF480634361202383614FF446
:101718000053C36102F044FD20B1294840F26A2118
:1017280002F01CFC2C4BE3635C623AE02C4A9342C7
:1017380037D1284A136801331360012B09D11B4B99
:101748005A6942F000525A615B6903F000530493EE
:10175800049B4FF4504305930323069300250795F4
:10176800144805A902F048F81E481F4B036045605D
:1017780085608023C3604FF4807303614FF48063F6
:101788004361202383614FF40053C36102F008FDD5
:1017980020B10B484FF4257102F0E0FB114BE363D5
:1017A8005C620AB070BD00BFC40000200010024097
:1017B8000008004800040048C43300200800024024
:1017C80040760008000100505C3400200804024004
:1017D80000040050C8000020D832002058040240FD
:1017E80000050050403200201C040240F8B50446B1
:1017F80003F0EAFC42F20F73984263D9324B9C42E1
:1018080007D0324B9C4206D0314B9C4205D1022373
:1018180004E0002302E0012300E003232D4A1268BC
:101828009A424FD14FF090402021002202F0C2F896
:1018380000253FE0C5EBC5033344274F03F583512B
:10184800083137F811004FF4AF6101FB043337F862
:101858001310571C80B289B200F0F8FA01343A46E6
:1018680000E00024022CE5DD013601E000263246C6
:10187800022EF6DD03261AE0C5EBC5033344164FE6
:1018880003F58351083137F811004FF4AF6101FBBC
:10189800043337F81310571C80B289B200F0D6FA17
:1018A80001343A4600E00024012CE5DD0136052E1E
:1018B800F9DD0135632DD9DD4FF09040202101225B
:1018C80002F078F8F8BD00BF1C33002084320020F5
:1018D80070330020CC000020D0000020F8B504466A
:1018E80003F072FC42F20F73984267D9344B9C4262
:1018F80007D0344B9C4206D0334B9C4205D102237F
:1019080004E0002302E0012300E003232F4A1268C9
:101918009A4253D14FF090402021002202F04AF819
:10192800002443E0C4EBC403334403F52F73284F6A
:1019380003F58351083137F811004FF4AF6101FB0B
:10194800053337F81310571C80B289B200F07EFABD
:1019580001353A4600E00025022DE3DD013601E0BD
:1019680000263246022EF6DD03261CE0C4EBC40333
:10197800334403F52F73164F03F58351083137F8B5
:1019880011004FF4AF6101FB053337F81310571CF2
:1019980080B289B200F05AFA01353A4600E00025D3
:1019A800012DE3DD0136052EF9DD0134632CD7DD89
:1019B8004FF090402021012201F0FCFFF8BD00BF4C
:1019C8001C3300208432002070330020CC0000201B
:1019D800D000002008B50848002101F0C7F90748E1
:1019E800002101F0C3F90648002101F0BFF90548BC
:1019F800002101F0BBF908BD1C330020843200200F
:101A0800703300200834002038B504465A4D284663
:101A1800C8215A4A4FF42F5304F0D8F8284602F048
:101A280015F8574801F068F9564801F065F9564825
:101A380001F062F9554801F05FF924BB504B1A6870
:101A4800D36823F4406343F48063D3604D4B1A6832
:101A5800D36823F4406343F48063D3604A4B1A6825
:101A6800D36823F4406343F48063D360474B1A6818
:101A7800D36823F4406343F48063D3600322444B68
:101A88001A6001244BE0002C26DA3D4B1A68D36813
:101A980023F4406343F48063D3603A4B1A68D368F5
:101AA80023F4406343F48063D360374B1A68D368E8
:101AB80023F4406343F48063D360344B1A68D368DB
:101AC80023F4406343F40063D360002CB8BF64423E
:101AD80002222F4B1A6022E0294B1A68D36823F49C
:101AE800406343F40063D360264B1A68D36823F439
:101AF800406343F40063D360234B1A68D36823F42C
:101B0800406343F40063D360204B1A68D36823F41E
:101B1800406343F48063D36003221D4B1A6042F292
:101B28000F739C4200DD1C46204602F09DFE1420E7
:101B380003F050FB174D124829464FF4AF6201F0ED
:101B480015F8104805F52F614FF4AF6201F00EF853
:101B58000D4805F5AF514FF4AF6201F007F80B4897
:101B680005F5035110314FF4AF6200F0FFFF204636
:101B780002F07AFE38BD00BF103500204C76000810
:101B88001C330020843200207033002008340020E9
:101B9800CC000020D0000020074B9B899BB2074A4D
:101BA80010881B1A03EB83031B010A321288101AD0
:101BB80093FBF0F01E307047D0000020B8F7FF1FED
:101BC800064B188840F6E44303FB00F041F2E65365
:101BD800034AD35A9BB290FBF3F07047BAF7FF1F42
:101BE800D0000020000000002DE9F04F2DED028B01
:101BF800A5B08346430003441B018F4E1E4418AC16
:101C080035460FCD0FC40FCD0FC495E80F0084E8FB
:101C18000F00002286F825201E9C209B934206DD9B
:101C280004EBD47A03EB6A0A9AFBF4FA05E004EBB6
:101C3800D47AA3EB6A0A9AFBF4FA1F9B002B06DD01
:101C480004EBD47503EB650595FBF4F505E004EBAF
:101C5800D475A3EB650595FBF4F5A0464FEAE47946
:101C6800DDE91C0122464B46FEF75EFF06460F469D
:101C7800DDE91A0122464B46FEF756FF0AFB0AF336
:101C8800F61A67EBE377CDE91C6705FB05F3C01A85
:101C980061EBE371CDE91A01002E77F1000303DA55
:101CA80000220023CDE91C23002871F1000303DA88
:101CB80000220023CDE91A23DDE91C01FEF744FCCC
:101CC80041EC100B05F062FB57EC106B8DED120B1D
:101CD800DDE91A01FEF738FC41EC100B05F056FB64
:101CE80053EC102B8DED140B30463946FEF75AFC99
:101CF800CDE91001DDE91823012A73F1000115DB94
:101D080004EBD4704010161843EBE07730463946A0
:101D180042464B46FEF708FF05FB0AF5401B61EB00
:101D2800E571FEF711FC8046894614E004EBD47097
:101D38004010161A63EBE0773046394642464B4668
:101D4800FEF7F2FE05FB0AF5401B61EBE571FEF7B5
:101D5800FBFB80468946DDE9100100220023FEF7DF
:101D680089FE40B940464946DDE91023FEF744FDA7
:101D780041EC180B01E09FED2E8B9DF884300BB1E0
:101D88003E2500E03A254FEA8B062C4B3344186871
:101D9800FEF7B4FBCDE90E01294B1E443068FEF76F
:101DA800ADFB06460F46DDE91001DDE90E23FEF71F
:101DB800F9FBCDE9100140464946DDE90E23FEF75F
:101DC800F1FBCDE91601DFF880800095DDE90E0111
:101DD800DDE91223FEF7E6FBCDE90201304639467C
:101DE800DDE91423FEF7DEFBCDE904013046394670
:101DF800DDE91023FEF7D6FBCDE90601304639466A
:101E0800DDE91623FEF7CEFBCDE908018DED0A8B3F
:101E18000C944046C8210B4A5B4603F0D7FE404667
:101E280001F014FE25B0BDEC028BBDE8F08F00BFB9
:101E38000000000000000000902C0020F076000850
:101E4800B47600082C770008103500202DE9F04101
:101E580002EB42031B01654F1F4440F6FF73994292
:101E680006D102EB42042401614B234401241C7176
:101E7800A0F2FF75A1F2FF7602EB420109015C4B6B
:101E88000B449B7953B959485300991809010144E7
:101E98008D62012381F82630BDE8F081012B1AD12B
:101EA80002EB42031B0151490B449B6A05FB03F3F8
:101EB800002B08DA530013441B010B44022183F85A
:101EC80026109D6207E002EB42021201474B1A44BA
:101ED8009562BDE8F081144602EB42021201444BC0
:101EE80013449B79032B3FD11346404A13449B6A02
:101EF80005FB03F3002B31DA04EB44031B013A46DC
:101F08003C490B4407F13001D2F80080D2F804C0F4
:101F1800D2F808E0D068C3F80080C3F804C0C3F85A
:101F280008E0D860103210338A42EDD14FEA4408F5
:101F380008EB04021201304B134401225A7138464F
:101F48000021302203F0A8F908EB04031B01274AFB
:101F580013449D62022283F8262005E004EB440323
:101F68001B01224A13449D6204EB44031B011F4AD0
:101F78001344D3F818C0214B9C4507DD6300234464
:101F88001B0113449D62032283F8262006FB05FEED
:101F9800164F620013191B013B44D3E9000110EBF3
:101FA8000E0041EBEE719E46EEE806010CF10101D0
:101FB8009961DEF804103144CEF8041006FB06F6E9
:101FC800D3E90201801941EBE671C3E90201196AFC
:101FD8002944196205FB05F5D3E90401401941EBD1
:101FE800E571C3E90401BDE8F08100BF602F00205E
:101FF800802F0020902C0020B02C0020B68A0200F0
:10200800032309E003EB430109010E4A0A4452790C
:1020180012F0FF0F08D00133052BF3DD0A4B93F8BC
:10202800653213F0FF0F05D170472046FFF7DCFD3E
:10203800013401E010B50324052CF6DD0C20FFF770
:10204800D3FD10BDB02C0020902C002008B540F224
:102058000D10FFF7D9FC08BD00B583B01C4B9A6979
:1020680042F001029A619B6903F001030193019B0D
:10207800072001F0F7FE6FF00B0000210A4601F07F
:1020880003FF6FF00A0000210A4601F0FDFE6FF021
:10209800090000210A4601F0F7FE6FF00400002154
:1020A8000A4601F0F1FE6FF0030000210A4601F034
:1020B800EBFE6FF0010000210A4601F0E5FE4FF04B
:1020C800FF3000210A4601F0DFFE03B05DF804FB93
:1020D8000010024038B50446826803691A43436910
:1020E8001A43C3691343016808689C4A02401343B2
:1020F8000B6021684B6823F44052E36813434B603C
:10210800A269236A134321688A6822F43062134360
:102118008B602568924B9D4212D103F558431B6B87
:1021280003F00303032B09D8DFE803F00204067E5B
:10213800012384E0042382E0082380E010237EE06A
:10214800884B9D4219D103F5E6331B6B03F44033EA
:10215800B3F5803F0BD001D83BB10CE0B3F5003F9D
:1021680007D0B3F5403F61D005E0002367E00423C2
:1021780065E0082363E0102361E07B4B9D4219D1A1
:1021880003F5E4331B6B03F44023B3F5802F0BD026
:1021980001D83BB10CE0B3F5002F07D0B3F5402FC1
:1021A80046D005E000234AE0042348E0082346E03F
:1021B800102344E06D4B9D4219D103F5E2331B6BAC
:1021C80003F44013B3F5801F0BD001D83BB10CE0EA
:1021D800B3F5001F07D0B3F5401F2BD005E000234F
:1021E8002DE004232BE0082329E0102327E0604B8F
:1021F8009D4221D103F5E0331B6B03F44003B3F593
:10220800800F0BD001D83BB10CE0B3F5000F07D01D
:10221800B3F5400F12D005E0002310E004230EE0D0
:1022280008230CE010230AE0022308E0022306E05A
:10223800022304E0022302E0102300E00223E26903
:10224800B2F5004F47D1082B3BD8DFE803F0051063
:102258001B3A263A3A3A310002F05AFF63685A08A4
:1022680002EB4000B0FBF3F39BB200202BE002F03E
:1022780065FF63685A0802EB4000B0FBF3F39BB2BA
:10228800002020E061684A0802F5740303F5105342
:10229800B3FBF1F39BB2002015E002F00BFE63687C
:1022A8005A0802EB4000B0FBF3F39BB200200AE0AF
:1022B8006268530803F58033B3FBF2F39BB2002046
:1022C80001E00120002323F00F02C3F3420313436C
:1022D8002268D36038BD082B3DD8DFE803F005102D
:1022E8001B3C273C3C3C320002F012FF636800EBC9
:1022F8005300B0FBF3F080B2E860002038BD02F074
:102308001DFF636800EB5300B0FBF3F080B2E86098
:10231800002038BD61684A0802F5F40303F59053BC
:10232800B3FBF1F39BB2EB60002038BD02F0C2FDB5
:10233800636800EB5300B0FBF3F080B2E860002064
:1023480038BD6268530803F50043B3FBF2F39BB250
:10235800EB60002038BD012038BD00BFF369FFEFF6
:10236800003801400044004000480040004C004054
:1023780000500040436A13F0010F06D001684B6813
:1023880023F40032836A13434B60436A13F0020F4D
:1023980006D001684B6823F48032C36A13434B604C
:1023A800436A13F0040F06D001684B6823F48022B7
:1023B800036B13434B60436A13F0080F06D00168A0
:1023C8004B6823F40042436B13434B60436A13F09A
:1023D800100F06D001688B6823F48052836B134377
:1023E8008B60436A13F0200F06D001688B6823F4D2
:1023F8000052C36B13438B60436A13F0400F11D034
:1024080001684B6823F48012036C13434B60036C20
:10241800B3F5801F06D101684B6823F4C002436CF2
:1024280013434B60436A13F0800F06D001684B6872
:1024380023F40022836C13434B6070472DE9F0416D
:1024480006460C4617469846069D1EE0B5F1FF3F26
:102458001BD02DB102F0B8FEC8EB0000A84214D979
:102468003268136823F4D07313603268936823F0DA
:1024780001039360202386F8693086F86A300023C8
:1024880086F868300320BDE8F0813368DB692340B3
:10249800A34214BF00230123BB42D7D00020BDE8CC
:1024A800F08100BF2DE9F04182B004461E4690F845
:1024B8006930DBB2202B4DD10D46904600294BD018
:1024C800002A4BD090F86830012B49D0012380F8BE
:1024D80068300023C366212380F8693002F074FE57
:1024E8000746A4F85080A4F852801EE0B4F8523091
:1024F800013B9BB2A4F8523000962046802100226E
:102508003B46FFF79BFF68BBA368B3F5805F08D124
:10251800236933B9226835F8023BC3F308031385EE
:1025280003E023682A781A850135B4F852309BB243
:10253800002BDBD100962046402100223B46FFF7C6
:102548007DFF034680B9202284F86920002284F8A0
:1025580068200AE0022308E0012306E0012304E0E2
:10256800022302E0032300E00323184602B0BDE87B
:10257800F08100BF30B583B004460023C36602F083
:1025880023FE054623681B6813F0080F0AD06FF076
:102598007E43009320464FF4001100222B46FFF79C
:1025A8004DFFC0B923681B6813F0040F0AD06FF001
:1025B8007E43009320464FF4800100222B46FFF70C
:1025C8003DFF50B9202384F8693084F86A30002030
:1025D80084F8680002E0032000E0032003B030BD67
:1025E80080B310B5044690F8693013F0FF0F04D19A
:1025F800002380F8683001F003FA242384F8693056
:102608002268136823F0010313602046FFF762FD78
:10261800012819D0636A13B12046FFF7ABFE226880
:10262800536823F4904353602268936823F02A0385
:1026380093602268136843F0010313602046FFF794
:1026480099FF10BD0120704710BD00BF38B5026862
:10265800936803F00303012B05D1136813F0010FEE
:1026680003D1002302E0002300E00123002B30D037
:10267800936803F00D03012B0BD10446936843F0D4
:1026880002039360036803221A6002F09DFD054669
:1026980018E0436C43F010034364836C43F0010378
:1026A8008364012038BD02F08FFD401B022809D940
:1026B800636C43F010036364A36C43F00103A364E9
:1026C800012038BD23689B6813F0010FEBD100206F
:1026D80038BD002038BD00BF70B5044603689A684D
:1026E80012F00C0F61D0DA6812F0007F1DD0C269B9
:1026F800012A1AD18269012A17D10EE02C498A428F
:1027080009D9636C43F010036364A36C43F00103BD
:10271800A364012070BD013200E00022196811F0A5
:10272800400FEBD040221A600C2160290CD023689E
:102738009A6812F0040F07D09A6812F0020F03D1BA
:102748009A6842F010029A600C290CD023689A68A3
:1027580012F0080F07D09A6812F0020F03D19A6896
:1027680042F020029A60602905D06C2901D10C251D
:1027780002E0042500E0082502F026FD06460EE0EA
:1027880002F022FD801B0B2809D9636C43F010036B
:102798006364A36C43F00103A364012070BD236844
:1027A8009B682B42ECD1002070BD002070BD00BF9B
:1027B800FF93090038B50268936803F00303012BFF
:1027C80005D1136813F0010F03D1002302E00023A1
:1027D80000E0012363BB9168164B194209D0436C92
:1027E80043F010034364836C43F0010383640120C6
:1027F80038BD0446936843F00103936002F0E4FC9B
:1028080005460EE002F0E0FC401B022809D9636C83
:1028180043F010036364A36C43F00103A364012035
:1028280038BD23681B6813F0010FEBD0002038BDBA
:10283800002038BD3F00008008B5406A436C43F073
:1028480040034364836C43F00403836400F062FD37
:1028580008BD00BF08B5406AFEF7C8FF08BD00BF45
:1028680008B5436A5A6C12F0500F1AD15A6C42F4E8
:1028780000725A641A68D26812F4406F0DD1DA698E
:102888005AB95A6C22F480725A645A6C12F4805FF6
:1028980003D15A6C42F001025A641846FFF71EF839
:1028A80008BDDB6B1B6B984708BD00BF70B596B0C1
:1028B80000230093002800F045810446436C13F080
:1028C800100F52D1436C002B37D183640365C36466
:1028D80080F84030FEF752FE23689B6813F0805F53
:1028E8002DD12046FFF7B2FE636C13F0100F27D1ED
:1028F80030BB636C23F4885323F0020343F00203D4
:1029080063642268936823F0405393602268936855
:1029180043F0805393608D4B1B688D4AA2FB0323C1
:102928009B0C03EB83035B00009302E0009B013BDD
:102938000093009B002BF9D102E0002000E000206A
:1029480023689A6812F0805F03D09B6813F0005FD9
:102958000CD0636C23F0120343F010036364A36C80
:1029680043F00103A364012000E00020636C13F02E
:10297800100F40F0DF80002840F0DC8023689A6860
:1029880012F0040140F0D680626C22F4817242F0A9
:1029980002026264B3F1A04F04D06E4A934203D19D
:1029A8006D4D02E06C4D00E06C4DB3F1A04F03D1CA
:1029B80003F58073019314E0664A934203D14FF004
:1029C800A04301930DE0664A934202D1654B0193FF
:1029D80007E0644A934202D1614B019301E000236E
:1029E80001932268936803F00303012B05D1136850
:1029F80013F0010F03D1002302E0002300E00123BC
:102A080093B9019E56B1B26802F00302012A04D1BB
:102A1800326812F0010F00D001232BB9AB6823F400
:102A2800403263681343AB60E5696A03A36B012B0B
:102A380001D04FF480510A43E1681143A2680A4368
:102A4800636A012B11D135B9A36A013B42EA4343BA
:102A580043F4803209E0636C23F0220343F020033F
:102A68006364A36C43F00103A364E36A012B30D0D1
:102A780021683B4DA94203D005F58075A94223D1B1
:102A8800B3F5307F1DD0B3F5807F17D0B3F5E07F65
:102A980011D0B3F58A5F0BD0B3F5845F05D0B3F5D9
:102AA800865F13D14FF4C07310E04FF4A0730DE0AC
:102AB8004FF470730AE04FF4807307E04FF43073FB
:102AC80004E04FF4E07301E023F48053216B0B43DF
:102AD8001A432368996811F00C0F0BD1D96821F4B7
:102AE800804121F00201D960A169636B5B0043EA70
:102AF80081331A432168CD681B4B2B401343CB60AD
:102B08002369012B08D121680B6B23F00F02236A7C
:102B1800013B13430B6304E02268136B23F00F039C
:102B280013630023A364636C23F0030343F00103DE
:102B3800636408E0636C23F0120343F010036364DA
:102B4800012000E0012016B070BD00BF0000002089
:102B580083DE1B43000100500003005000070050B3
:102B6800000400500005005007C0F0FFF8B50468E5
:102B7800A56815F0040F40F0AC8090F84030012BA8
:102B880000F0AA80012380F84030B4F1A04F02D0B1
:102B9800524B9C4207D1524B9B6813F01F0F0CBF3E
:102BA8000123002306E04F4B9B6813F01F0F0CBF57
:102BB80001230023002B00F0878016460D460746A8
:102BC800FFF7F8FD044600287AD17B6C23F4706384
:102BD80023F0010343F480737B643B68B3F1A04F97
:102BE80002D03E4A934205D13D4A926812F01F0F27
:102BF8000BD004E03B4A926812F01F0F05D0B3F1E6
:102C0800A04F02D0384A93420ED17A6C22F4801237
:102C18007A64DB6813F0007F21D07B6C23F4405387
:102C280043F480537B641AE07A6C42F480127A642D
:102C3800B3F1A04F02D0294A934205D14FF0A043E7
:102C4800DB68C3F3406303E0274BDB68C3F34063EF
:102C58002BB17B6C23F4405343F480537B647B6C2F
:102C680013F4805F04D0BB6C23F00603BB6401E05F
:102C78000023BB64002387F84030FB6B1B4A9A6231
:102C8800FB6B1B4ADA62FB6B1A4A1A633B681C220D
:102C98001A603A68536843F0100353603A68D3687F
:102CA80043F00103D3603968F86B40312A46334654
:102CB80001F0A2FA3A68936843F00403936009E0CC
:102CC800002387F8403005E0002380F840300124D5
:102CD80000E002242046F8BD0220F8BD00010050A3
:102CE8000003005000070050000400506928000845
:102CF8005D2800084128000838B590F84030012BBD
:102D080032D00546012380F840306C21FFF7E4FCFF
:102D1800044620BB2A68D36823F00103D360E86B1C
:102D280001F0A4FA044618B16B6C43F040036B64DD
:102D38002A68536823F01003536024B92846FFF724
:102D480085FC044602E02846FFF780FC3CB96B6C22
:102D580023F4885323F0010343F001036B64002339
:102D680085F84030204638BD022038BD90F8403004
:102D7800012B40D070B50E460446012380F8403040
:102D8800FFF764FC0546002830D1012363642268FC
:102D9800936823F080439360012E04D122689368DE
:102DA80043F0804393602268936843F00043936044
:102DB80002F00AFA06460FE002F006FA801B0A281B
:102DC8000AD9636C23F0120343F0100363640023F1
:102DD80084F84030012070BD23689B68002BEBDB32
:102DE800636C23F0030343F001036364002384F856
:102DF8004030284670BD0220704700BFF0B496B03E
:102E08000023009390F84030012B00F0B18101239A
:102E180080F840300268936813F0040F40F0968100
:102E28004B68042B0CD8166B03EB43035B001F2481
:102E38009C4026EA04050C689C402C4314632CE053
:102E4800092B0DD8566B03EB43035B001E3B1F2475
:102E58009C4026EA04050C689C402C4354631CE003
:102E68000E2B0DD8966B03EB43035B003C3B1F24F2
:102E78009C4026EA04050C689C402C4394630CE0B3
:102E8800D66B03EB43035B005A3B1F249C4026EAA6
:102E980004050C689C402C43D4630268936813F0C3
:102EA8000C0F40F085800B68092B0CD9966903EB51
:102EB80043031E3B07249C4026EA04058C689C407B
:102EC8002C4394610AE0566903EB430307249C40B2
:102ED80026EA04058C689C402C4354614A690468BE
:102EE800E368C3F3C1035B009A400B69013B032B02
:102EF8002FD8DFE803F0020D1823236E9E4D1D40E6
:102F08000B6842EA83632B4343F0004323664FE098
:102F1800636E994D1D400B6842EA83632B4343F06F
:102F28000043636644E0A36E934D1D400B6842EA7C
:102F380083632B4343F00043A36639E0E36E8E4D71
:102F48001D400B6842EA83632B4343F00043E3666A
:102F58002EE0236E03F0F8430A68B3EB826F03D1C7
:102F6800236E23F0004323660268536E03F0F84390
:102F78000C68B3EB846F03D1536E23F000435366A0
:102F88000268936E03F0F8430C68B3EB846F03D1C7
:102F9800936E23F0004393660268D36E03F0F84300
:102FA8000C68B3EB846F03D1D36E23F00043D36670
:102FB8000268936803F00303012B05D1136813F02B
:102FC800010F03D1002402E0002400E00124002CBA
:102FD80040F0C280CB68012B09D0D2F8B0500E68FF
:102FE8000123B34025EA0303C2F8B03025E0D2F844
:102FF800B0500E680123B3402B43C2F8B0300B68C1
:10300800092B0DD90768BE6903EB43031B3B072255
:103018009A4026EA02058A689A402A43BA610CE077
:1030280007687E69013303EB430307229A4026EAC7
:1030380002058A689A402A437A610368B3F1A04F6F
:1030480004D04E4A934203D14D4D02E04C4D00E06E
:103058004C4D0A68102A03D1AE6816F4000F0BD045
:10306800112A03D1AE6816F0807F05D0122A75D1D7
:10307800AA6812F4800F73D1B3F1A04F03D103F5FE
:103088008073019314E03D4A934203D14FF0A0436B
:1030980001930DE03C4A934202D13C4B019307E077
:1030A8003A4A934202D1384B019301E0002301933D
:1030B8000268936803F00303012B04D1136813F02B
:1030C800010F00D00124002C3AD1019E56B1B368FB
:1030D80003F00303012B04D1336813F0010F00D070
:1030E80001246CBB0B68102B17D1B2F1A04F14D17F
:1030F800AB6843F40003AB60254B1B68254AB3FB60
:10310800F2F20A2303FB02F3009302E0009B013B67
:103118000093009B002BF9D125E0112B08D1B2F1C7
:10312800A04F05D1AB6843F08073AB6000231AE071
:10313800122B17D1AB6843F48003AB60002312E075
:10314800436C43F02003436401230CE0436C43F0D9
:1031580020034364012306E0002304E0002302E087
:10316800002300E00023002280F84020184600E0F9
:10317800022016B0F0BC704700F0FF830001005039
:1031880000030050000700500004005000050050E4
:103198000000002040420F0070B497B00368B3F1FC
:1031A800A04F03D103F58073019314E0544A93426E
:1031B80003D14FF0A04301930DE0524A934202D14C
:1031C800514B019307E0504A934202D14D4B019372
:1031D80001E000230193019B002B00F08A8090F806
:1031E8004020012A00F08780012280F840200268F0
:1031F800946814F0040F6AD19C6814F0040F66D127
:10320800B2F1A04F04D03E4CA24203D13F4A02E0A3
:103218003E4A00E03E4A0C68002C31D0946824F401
:1032280060454C68466B44EA46342C439460056814
:10323800AC6804F00304012C05D12C6814F0010FCC
:1032480003D1002402E0002400E00124002C44D132
:103258009D6805F00305012D04D11B6813F0010FCB
:1032680000D00124002C3AD1936823F4716424F02F
:103278000F040B6889680B4323439360002333E0F2
:10328800916821F4604191600468A16801F003012C
:10329800012905D1216811F0010F03D1002102E0B5
:1032A800002100E00121E1B99C6804F00304012C2D
:1032B80004D11B6813F0010F00D0012199B993685C
:1032C80023F4716323F00F03936000230CE0436C35
:1032D80043F020034364012306E0002304E00023B5
:1032E80002E0002300E00023002280F84020184676
:1032F80002E0012000E0022017B070BC704700BF58
:103308000001005000040050000500500003005068
:1033180000070050704700BF704700BF0368324A7B
:10332800904212D0B0F1804F0FD0A2F59432904263
:103338000BD002F58062904207D002F59632904297
:1033480003D002F5E052904203D123F070034A689B
:103358001343254A90421ED0B0F1804F1BD0A2F5EE
:103368009432904217D002F58062904213D002F551
:10337800963290420FD002F5406290420BD002F58F
:103388008062904207D002F58062904203D002F535
:103398000062904203D123F44073CA68134323F0B8
:1033A80080034A69134303608B68C3620B688362B6
:1033B8000D4B984213D003F5006398420FD003F5E4
:1033C800406398420BD003F58063984207D003F519
:1033D8008063984203D003F50063984201D10B69DA
:1033E8000363012343617047002C0140C0B110B54D
:1033F800044690F83D3013F0FF0F04D1002380F805
:103408003C3001F09BF9022384F83D30214651F805
:10341800040BFFF783FF012384F83D30002010BD23
:103428000120704710B338B504460D4690F83D307A
:1034380013F0FF0F04D1002380F83C30FFF76CFF36
:10344800022384F83D30214651F8040BFFF766FF4C
:103458002268136823F00803136023681968294356
:103468001960012384F83D30002038BD01207047E1
:1034780030B4036A23F001030362036A4468826973
:1034880022F4803222F073020D682A4323F00203EB
:103498008D682B43204DA84213D005F50065A8423E
:1034A8000FD005F54065A8420BD005F58065A84208
:1034B80007D005F58065A84203D005F50065A84248
:1034C80005D123F00803CD682B4323F00403124DE4
:1034D800A84213D005F50065A8420FD005F5406550
:1034E800A8420BD005F58065A84207D005F5806590
:1034F800A84203D005F50065A84205D124F440741C
:103508004D692C438D692C43446082614A6842634B
:10351800036230BC704700BF002C014030B4036A1E
:1035280023F010030362036A4468826922F0807200
:1035380022F4E6420D6842EA052223F020038D6852
:1035480043EA05131B4DA84207D005F50065A842BC
:1035580003D005F5E055A84206D123F08003CD68D5
:1035680043EA051323F04003124DA84213D005F592
:103578000065A8420FD005F54065A8420BD005F5B7
:103588008065A84207D005F58065A84203D005F5F7
:103598000065A84207D124F440644D6944EA8504D3
:1035A8008D6944EA8504446082614A6882630362E3
:1035B80030BC7047002C014030B4036A23F4807398
:1035C8000362036A4468C26922F4803222F07302FB
:1035D8000D682A4323F400738D6843EA05231C4DC4
:1035E800A84207D005F50065A84203D005F5E055C7
:1035F800A84206D123F40063CD6843EA052323F4E7
:103608008063134DA84213D005F50065A8420FD07A
:1036180005F54065A8420BD005F58065A84207D09E
:1036280005F58065A84203D005F50065A84207D1D5
:1036380024F440544D6944EA05148D6944EA05149C
:103648004460C2614A68C263036230BC704700BF0D
:10365800002C014030B4036A23F480530362036AE8
:103668004468C26922F0807222F4E6420D6842EA98
:10367800052223F400538D6843EA0533114DA8420F
:1036880013D005F50065A8420FD005F54065A8429E
:103698000BD005F58065A84207D005F58065A842DE
:1036A80003D005F50065A84204D124F480444D698F
:1036B80044EA85144460C2614A680264036230BC0B
:1036C800704700BF002C014010B401238B40046AEE
:1036D80024EA03030362036A8A401A4302625DF81C
:1036E800044B704710B5044600680122FFF7ECFF51
:1036F8002368184A934215D002F50062934213D00A
:1037080002F54062934211D002F5806293420FD0D5
:1037180002F5806293420DD002F5006293420BD10C
:1037280001220AE0012208E0012206E0012204E069
:10373800012202E0012200E000221AB15A6C42F490
:1037480000425A642268136843F0010313600020A2
:1037580010BD00BF002C014010B5044600680022CF
:10376800FFF7B2FF2368234A934215D002F500629F
:10377800934213D002F54062934211D002F5806261
:1037880093420FD002F5806293420DD002F5006299
:1037980093420BD101220AE0012208E0012206E04F
:1037A800012204E0012202E0012200E000226AB1C5
:1037B800196A41F21112114208D1196A40F24442C1
:1037C800114203D15A6C22F400425A642368196AE0
:1037D80041F21112114208D1196A40F244421142D1
:1037E80003D11A6822F001021A60012384F83D30DF
:1037F800002010BD002C01402DE9F04182B00023CB
:10380800C7E001249C40224000F0C2804D68022D90
:1038180001D0122D14D14FEAD30808F1080850F846
:10382800287003F0070E4FEA8E0E0F2505FA0EF5E5
:1038380027EA05060D6905FA0EF5354340F82850C4
:1038480006684FEA430E032505FA0EF5ED4305EA2F
:1038580006074E6806F0030606FA0EF63E430660B3
:103868004E68771E012F03D9112E01D0122E12D1C6
:10387800866805EA0607CE6806FA0EF63E438660B5
:10388800476827EA04074E68C6F3001404FA0CF6E2
:1038980046EA07044460C4682C408D6805FA0EF5B2
:1038A8002543C5604C6814F0805F71D03D4CA56914
:1038B80045F00105A561A46904F001040194019C87
:1038C8009C08A61C384D55F8266003F00307BF0076
:1038D8000F25BD4026EA0506B0F1904F24D0334DA0
:1038E800A8421FD005F58065A84219D005F5806566
:1038F800A84213D005F58065A8420DD005F580656E
:10390800A84207D005F58065A84201D106250CE03C
:1039180007250AE0052508E0042506E0032504E05C
:10392800022502E0012500E00025BD4035430234B0
:103938001D4E46F824501E4C2568D44304EA05065B
:103948004F6817F4803F01D042EA0506184D2E60F3
:103958006D6804EA05064F6817F4003F01D042EA93
:103968000506134D6E60AD6804EA05064F6817F446
:10397800801F01D042EA05060D4DAE60ED682C406F
:103988004E6816F4001F01D042EA0504084AD460C4
:1039980001330A689C4632FA03F47FF432AF02B06E
:1039A800BDE8F0810010024000000140000400481A
:1039B800000401400AB1816170478162704700BF0D
:1039C80008B50C480C4B03604FF4E1334360002307
:1039D8008360C36003610C2242618361C361036237
:1039E8004362FEF7FDFD18B10448462100F0B6FA1F
:1039F80008BD00BFA0340020004400407C770008C8
:103A08000268114B9A421DD100B587B003F5E63321
:103A1800DA6942F40032DA61DB6903F400330093B7
:103A2800009B0C2301930223029300230393049326
:103A3800072305934FF0904001A9FFF7DDFE07B07B
:103A48005DF804FB704700BF0044004010B5044611
:103A580002F0EEF882B2034821464FF47A73FEF77B
:103A680021FD10BDA0340020F0B583B004460368E2
:103A780013F4803F00F09180364BDB6913F0805FD0
:103A88000BD1344BDA6942F08052DA61DB6903F01A
:103A980080530193019B012500E000252E4B1B68F4
:103AA80013F4807F13D12C4A136843F48073136096
:103AB80001F08AFB064605E001F086FB801B6428BE
:103AC80000F24981244B1B6813F4807FF4D0214B0A
:103AD8001B6A13F4407354D0626802F440729A422D
:103AE8004FD01C4E306A20F440774FF4803191FA61
:103AF800A1F3B3FA83F3194A13449B004FF0010E64
:103B0800C3F800E091FAA1F1B1FA81F10A449200F8
:103B180000231360376210F0010F32D001F054FB1C
:103B2800064607E001F050FB801B41F288339842BB
:103B380000F21381022393FAA3F293FAA3F3B3FAE0
:103B480083F343F040035B09022B09D1014B196A47
:103B58000BE000BF00100240007000400081901090
:103B6800022393FAA3F37F4B596A022393FAA3F330
:103B7800B3FA83F303F01F03012202FA03F3194295
:103B8800D0D078490B6A23F44072636813430B6200
:103B98001DB1CB6923F08053CB61236813F0010F6B
:103BA80006D070490B6B23F00302A36813430B6321
:103BB800236813F0020F06D06A490B6B23F44032D6
:103BC800E36813430B63236813F0040F06D06549B9
:103BD8000B6B23F44022236913430B63236813F010
:103BE800200F06D05F490B6B23F01002E3691343E3
:103BF8000B63236813F4003F06D05A494B6823F43B
:103C08008002636D13434B60236813F0400F06D0A6
:103C180054490B6B23F02002236A13430B63236878
:103C280013F4802F06D04F490B6B23F04002636AD0
:103C380013430B63236813F0080F06D049490B6B35
:103C480023F44012636913430B63236813F0100FC6
:103C580006D044490B6B23F44002A36913430B635A
:103C6800236813F4007F06D03E494B6823F4000212
:103C7800236B13434B60236813F0800F06D0394938
:103C8800CB6A23F4F872A36A1343CB62236813F454
:103C9800807F06D03349CB6A23F47852E36A134312
:103CA800CB62236813F4805F06D02E490B6B23F494
:103CB8008072636B13430B63236813F4005F06D0B1
:103CC80028490B6B23F40072236C13430B6323689E
:103CD80013F4801F06D023490B6B23F08072A36B6B
:103CE80013430B63236813F4001F06D01D490B6BA5
:103CF80023F00072E36B13430B63236813F4800F04
:103D080006D018490B6B23F48062636C13430B6372
:103D1800236813F4000F06D012490B6B23F40062DA
:103D2800A36C13430B63236813F0807F06D00D49FF
:103D38000B6B23F40052E36C13430B63236813F0FB
:103D4800007F0CD007490B6B23F40042236D13430B
:103D58000B63002004E0032002E0032000E00020C1
:103D680003B0F0BD0010024070B58AB0384B5A69F4
:103D780042F400225A615A6902F400220092009A21
:103D88005A6942F480025A615A6902F48002019227
:103D9800019A5A6942F400325A615A6902F40032AF
:103DA8000292029A5A6942F480225A615A6902F4CC
:103DB80080220392039A5A6942F480125A615B691D
:103DC80003F480130493049B4FF0904020210022B9
:103DD800FFF7F0FD4FF4005305931E4B06930024A4
:103DE80007941D4E304605A9FFF706FD20230593CD
:103DF80001230693079408944FF0904005A9FFF714
:103E0800FBFC4FF4FB5305930325069507943046B6
:103E180005A9FFF7F1FC4FF4FE6305930695079497
:103E28000E4805A9FFF7E8FC4FF41F4305930695D4
:103E380007944FF0904005A9FFF7DEFC0423059393
:103E480006950794064805A9FFF7D6FC0AB070BD89
:103E5800001002400000211000080048000400483B
:103E6800000C004800F00700064AD36823F4E0631A
:103E78001B041B0C43EA002040F0BF6040F40030F4
:103E8800D060704700ED00E030B4164BDC68C4F336
:103E98000224C4F10705042D28BF0425231D062B81
:103EA80001D9033C00E00024012303FA05F5013D94
:103EB8002940A140A340013B1A400A43002806DAE2
:103EC80000F00F001201D2B2074B1A5407E012019A
:103ED800D2B200F1604000F5614080F8002330BCA8
:103EE800704700BF00ED00E014ED00E0410900F06C
:103EF8001F0001238340024A42F82130704700BF67
:103F080000E100E00138B0F1807F0AD2064B58602A
:103F1800F021064A82F823100020986007221A60D0
:103F280070470120704700BF10E000E000ED00E09E
:103F3800042805D1054A136843F004031360704749
:103F4800024A136823F004031360704710E000E08E
:103F5800704700BF08B5FFF7FBFF08BDFEE700BFCD
:103F680000B5A7B002231C9301221F9210222092B1
:103F780022934FF4004323934FF4E0132493002338
:103F880025931CA800F084FC18B11C48B021FFF749
:103F9800E5FF0F23179302211891002319934FF47B
:103FA80080621A921B9317A800F0BCFF18B113483F
:103FB800BE21FFF7D3FF42F20203019300230493CB
:103FC800119301A8FFF750FD18B10C48C621FFF75F
:103FD800C5FF01F097F80A4BA3FB00308009FFF7F3
:103FE80091FF0420FFF7A4FF4FF0FF3000210A469D
:103FF800FFF74AFF27B05DF804FB00BF8877000889
:10400800D34D621080B582B001F0C4F8FFF7A8FF65
:10401800FFF7AAFE00F0CEF9FFF7D2FCFDF756F83D
:10402800FDF77AF9FDF714FA00F0B8FBFDF7E6F8AA
:104038004FF0904020210122FFF7BCFC224C234D79
:104048000FCD20606160A260E36003CD20616161F3
:104058002B7823762046FFF7F9FC1D4D05F1200744
:104068002E460FCE20606160A260E36035461034B2
:10407800BE42F5D1306820601348FFF7E7FCFDF732
:10408800A9FCFDF7E3FFFDF7BBFF01F09DF8114B1D
:104098001B68C01A42F210739842F4D9FDF77CFDF0
:1040A8000546FDF78DFD084C00902046C8210A4AB8
:1040B8002B4601F08BFD2046FFF7C8FC01F084F881
:1040C800044B1860DFE700BF103500209477000824
:1040D800B077000830320020D477000808B501F026
:1040E8006BF8FFF737FF08BD08B5024800F0D6F8AF
:1040F80008BD00BFC433002008B5024800F0CEF860
:1041080008BD00BF5C34002008B5024800F0C6F8BE
:1041180008BD00BF4032002008B5024800F0BEF8D4
:1041280008BD00BFD832002070B4C56B066C0124EE
:10413800B4406C60046863604368102B04D1036862
:104148009A600368D96003E0036899600368DA60DD
:1041580070BC704702680C4B9A420AD80B4B134448
:104168000B4AA2FB03231B099B000364094BC3638F
:104178007047094B1344064AA2FB03231B099B0003
:104188000364064BC363704707040240F8FFFDBF92
:10419800CDCCCCCC00000240F8FBFDBF00040240AF
:1041A80040B310B50446022380F821300068036844
:1041B80023F47F5323F030036168A2681143E26857
:1041C80011432269114362691143A2691143E269EB
:1041D8000A43134303602046FFF7BCFF0020A06298
:1041E800E06220636063A063012384F8213084F8CF
:1041F800200010BD0120704738B590F82040012CF0
:1042080032D0012480F8204090F82140012C26D19A
:104218000446022084F821000020A063256828684D
:1042280020F0010028602046FFF77EFFE36A2BB1EB
:104238002268136843F00E03136009E022681368CC
:1042480043F00A0313602268136823F00403136021
:104258002268136843F001031360002038BD00236F
:1042680080F82030022038BD022038BD034601689E
:104278000A6822F00E020A6001680A6822F0010248
:104288000A60C16B006C012202FA00F0486083F8F2
:104298002120002083F82000704700BF38B5C36B89
:1042A8001A6804682568016C04238B40134214D0F3
:1042B80015F0040F11D0236813F0200F03D12368E1
:1042C80023F004032360C26B016C04238B4053600A
:1042D800C36A002B39D0984738BD02238B4013425C
:1042E80019D015F0020F16D0236813F0200F06D14D
:1042F800236823F00A032360012380F82130C26B6E
:10430800016C02238B405360002380F82030836ABD
:10431800DBB1984738BD08238B40134215D015F000
:10432800080F12D0236823F00E032360C26B016CC0
:10433800012303FA01F15160836380F821300023DF
:1043480080F82030036B03B1984738BD1549D1F880
:10435800883043F47003C1F88830134B1A6842F070
:1043680001021A605868114A02405A601A6822F01D
:10437800847222F480321A601A6822F480221A6049
:104388005A6822F4FE025A60DA6A22F00F02DA62F0
:10439800186B074A02401A6300229A604FF00063C4
:1043A8008B60704700ED00E0001002400CC07FF801
:1043B800CCFC00FF00B583B01A4B5A6942F00102E9
:1043C8005A615A6902F001020092009A5A6942F051
:1043D80002025A615B6903F002030193019B0B20FF
:1043E80000210A46FFF750FD0B20FFF77FFD38201C
:1043F80000210A46FFF748FD3820FFF777FD3920EE
:1044080000210A46FFF740FD3920FFF76FFD3C20E9
:1044180000210A46FFF738FD3C20FFF767FD03B08F
:104428005DF804FB0010024030B4036A23F48033C3
:104438000362036A4468426D22F4803222F07002FB
:104448000D682A4323F400338D6843EA0543114D70
:10445800A84213D005F50065A8420FD005F54065C0
:10446800A8420BD005F58065A84207D005F5806500
:10447800A84203D005F50065A84204D124F480348D
:104488004D6944EA0524446042654A6882650362CE
:1044980030BC7047002C014030B4036A23F4801309
:1044A8000362036A4468426D22F0807222F4E0429B
:1044B8000D6842EA052223F400138D6843EA055388
:1044C800114DA84213D005F50065A8420FD005F597
:1044D8004065A8420BD005F58065A84207D005F5D0
:1044E8008065A84203D005F50065A84204D124F4EC
:1044F80080244D6944EA8524446042654A68C2655F
:10450800036230BC704700BF002C014038B590F8FA
:104518003C30012B00F093800D460446012380F8BF
:104528003C30022380F83D30142A00F28180DFE815
:1045380002F00B7F7F7F1E7F7F7F327F7F7F457FEB
:104548007F7F597F7F7F6C000068FEF791FF2268AC
:10455800936943F0080393612268936923F0040385
:104568009361226891692B690B43936160E000684D
:10457800FEF7D4FF2268936943F4006393612268CD
:10458800936923F48063936122689369296943EAF4
:10459800012393614CE00068FFF70EF82268D369A5
:1045A80043F00803D3612268D36923F00403D3617D
:1045B8002268D1692B690B43D36139E00068FFF7A2
:1045C80049F82268D36943F40063D3612268D36948
:1045D80023F48063D3612268D369296943EA0123FC
:1045E800D36125E00068FFF71FFF2268536D43F091
:1045F800080353652268536D23F00403536522684A
:10460800516D2B690B43536512E00068FFF744FFB7
:104618002268536D43F4006353652268536D23F495
:10462800806353652268536D296943EA0123536502
:10463800012384F83D30002084F83C0038BD022076
:1046480038BD00BF90F83C30012B25D030B4012391
:1046580080F83C30026853689468114DAA4207D02C
:1046680005F50065AA4203D005F5E055AA4203D135
:1046780023F470034D682B4323F070030D682B431C
:1046880024F08004896821435360036899600023FB
:1046980080F83C30184601E00220704730BC704773
:1046A800002C014090F83C30012B40D010B401237D
:1046B80080F83C30CB6823F440728B68134323F4B2
:1046C80080624B68134323F400620B68134323F49E
:1046D80080520B69134323F400524B6913438A6ACF
:1046E80023F440431A4322F470228B6942EA0343BD
:1046F8000268114CA24207D004F50064A24203D01C
:1047080004F5E054A2420CD123F470034C6A43EA46
:10471800045323F08073CC69234323F000740B6A9D
:1047280023435364002380F83C30184601E00220FC
:1047380070475DF8044B7047002C01400268084B35
:104748009A420CD182B003F55C439A6942F4005254
:104758009A619B6903F400530193019B02B070476F
:104768000034014002680B4B9A4212D100B587B061
:1047780080230193022302930023039304930423C9
:10478800059305480DEB0301FFF736F807B05DF810
:1047980004FB7047003401400008004800B597B09A
:1047A8002E482F4B0360472343600023836042F267
:1047B8000F72C260036143618361FEF717FE18B18F
:1047C80028484321FFF7CAFB24480821FEF72AFEA0
:1047D80018B124484821FFF7C1FB002313934FF475
:1047E800A002149215931D4813A9FFF72BFF18B1C7
:1047F8001C485021FFF7B2FB60230C9300230D9354
:104808000E930F9310931193129314480CA904223A
:10481800FFF77CFE18B113485C21FFF79FFB0023CC
:10482800019302930393049305934FF40052069265
:10483800079308934FF0007209920A930B93074865
:1048480001A9FFF72FFF18B106486C21FFF786FB77
:104858000248FFF787FF17B05DF804FBD835002042
:10486800003401400878000838B50446074D28464A
:104878000421FEF771FF2B68C4F51C5010309863B3
:1048880028460421FEF72EFF38BD00BFD83500208A
:1048980070B582B00446036813F0010F00F09880E9
:1048A800B54B5B6803F00C03042B0CD0B24B5B6870
:1048B80003F00C03082B1DD1AF4B5B6803F4C03326
:1048C800B3F5803F16D14FF4003393FAA3F3AA4B04
:1048D80019684FF4003393FAA3F3B3FA83F303F0A0
:1048E8001F03012202FA03F3194271D06368002BF7
:1048F8006ED1B8E26368B3F5803F05D19E4A13686C
:1049080043F48033136026E063B903F1804303F571
:1049180004331A6822F480321A601A6822F480225A
:104928001A6018E0B3F5A02F0CD103F18043A3F56A
:104938003C331A6842F480221A601A6842F48032C2
:104948001A6008E08C4B1A6822F480321A601A68E0
:1049580022F480221A606368EBB100F035FC05464A
:1049680005E000F031FC401B642800F27E824FF421
:10497800003393FAA3F3804B19684FF4003393FA8A
:10498800A3F3B3FA83F303F01F03012202FA03F33C
:104998001942E6D01CE000F017FC054605E000F0DF
:1049A80013FC401B642800F262824FF4003393FA30
:1049B800A3F3714B19684FF4003393FAA3F3B3FAD6
:1049C80083F303F01F03012202FA03F31942E6D12D
:1049D800236813F0020F00F09280674B5B6813F0B6
:1049E8000C0F0CD0644B5B6803F00C03082B29D127
:1049F800614B5B6803F4C033B3F5004F22D1022347
:104A080093FAA3F35C4B1968022393FAA3F3B3FA5E
:104A180083F303F01F03012202FA03F3194203D0C0
:104A2800E368934240F025825348036823F0F80175
:104A38002369F82292FAA2F2B2FA82F293400B4367
:104A480003605CE0E3689BB3012292FAA2F3B3FA35
:104A580083F303F1845303F584139B001A6000F079
:104A6800B3FB054605E000F0AFFB401B022800F24F
:104A78000282022393FAA3F33F4B1968022393FAA5
:104A8800A3F3B3FA83F303F01F03012202FA03F33B
:104A98001942E8D03848036823F0F8012369F8225E
:104AA80092FAA2F2B2FA82F293400B43036026E034
:104AB800012393FAA3F3B3FA83F303F1845303F5C1
:104AC80084139B0000221A6000F07EFB054605E077
:104AD80000F07AFB401B022800F2CF81022393FAF0
:104AE800A3F3254B1968022393FAA3F3B3FA83F3CC
:104AF80003F01F03012202FA03F31942E8D12368E5
:104B080013F0080F56D063693BB3012191FAA1F263
:104B1800B2FA82F2194B13449B00196000F054FB5F
:104B2800054605E000F050FB401B022800F2A78173
:104B3800022393FAA3F293FAA3F293FAA3F20E4A8A
:104B4800516A93FAA3F3B3FA83F303F01F03012224
:104B580002FA03F31942E5D02CE0012292FAA2F2FC
:104B6800B2FA82F2054B13449B0000221A6000F04F
:104B78002BFB05460AE000BF001002402081901080
:104B880000F022FB401B022800F27B81022393FAEB
:104B9800A3F293FAA3F293FAA3F2BE4A516A93FAE4
:104BA800A3F3B3FA83F303F01F03012202FA03F31A
:104BB8001942E5D1236813F0040F00F0B880B54B13
:104BC800DB6913F0805F0BD1B24BDA6942F0805297
:104BD800DA61DB6903F080530193019B012500E052
:104BE8000025AD4B1B6813F4807F13D1AA4A1368C4
:104BF80043F48073136000F0E7FA064605E000F01E
:104C0800E3FA801B642800F23E81A34B1B6813F46F
:104C1800807FF4D0A368012B05D19E4A136A43F024
:104C28000103136222E063B903F1804303F50433FF
:104C38001A6A22F001021A621A6A22F004021A623F
:104C480014E0052B09D1934B1A6A42F004021A6248
:104C58001A6A42F001021A6208E08E4B1A6A22F0C0
:104C680001021A621A6A22F004021A62A36863B384
:104C780000F0AAFA064607E000F0A6FA801B41F207
:104C88008833984200F20181022393FAA3F293FA3F
:104C9800A3F3B3FA83F343F040035B09022B02D179
:104CA8007C4B196A04E0022393FAA3F3794B596AFF
:104CB800022393FAA3F3B3FA83F303F01F03012249
:104CC80002FA03F31942D7D02BE000F07DFA06462A
:104CD80007E000F079FA801B41F28833984200F22D
:104CE800D680022393FAA3F293FAA3F3B3FA83F3D9
:104CF80043F040035B09022B02D1664B196A04E0BA
:104D0800022393FAA3F3634B596A022393FAA3F39A
:104D1800B3FA83F303F01F03012202FA03F31942E3
:104D2800D7D125B15B4AD36923F08053D361A369F6
:104D3800002B00F0B380574A526802F00C02082A90
:104D480000F0AE80022B63D14FF0807393FAA3F387
:104D5800B3FA83F303F1845303F584139B00002211
:104D68001A6000F031FA054605E000F02DFA401B04
:104D7800022800F297804FF0007393FAA3F3454B93
:104D880019684FF0007393FAA3F3B3FA83F303F0AF
:104D98001F03012202FA03F31942E6D13D49CB6A07
:104DA80023F00F02636A1343CB624B6823F4761037
:104DB800236AE269134303434B604FF0807393FA0D
:104DC800A3F3B3FA83F303F1845303F584139B002D
:104DD80001221A6000F0F8F9044604E000F0F4F942
:104DE800001B022860D84FF0007393FAA3F3294BF5
:104DF80019684FF0007393FAA3F3B3FA83F303F03F
:104E08001F03012202FA03F31942E7D000204EE003
:104E18004FF0807393FAA3F3B3FA83F303F1845347
:104E280003F584139B0000221A6000F0CDF90446B4
:104E380004E000F0C9F9001B022837D84FF00073CE
:104E480093FAA3F3134B19684FF0007393FAA3F383
:104E5800B3FA83F303F01F03012202FA03F31942A2
:104E6800E7D1002023E0012021E003201FE00320F8
:104E78001DE001201BE0032019E0032017E00320B8
:104E880015E0032013E0032011E003200FE00320C6
:104E98000DE000BF0010024000700040002006E056
:104EA800012004E0032002E0032000E0032002B018
:104EB80070BD00BF174B5A6802F00C03082B26D1AF
:104EC80002F470114FF4701393FAA3F3B3FA83F357
:104ED80021FA03F31049CB5C0E49C96A01F00F01AE
:104EE8000F2090FAA0F0B0FA80F0C1400B48405C67
:104EF80012F4803F05D00A4AB2FBF0F003FB00F041
:104F08007047074AB2FBF0F003FB00F07047044813
:104F1800704700BF00100240247800081478000889
:104F280000127A0070B5734B1B6803F007038B42BD
:104F38000BD2704A136823F007030B4313601368FE
:104F480003F007038B4240F0C580036813F0020F9B
:104F580006D0694C636823F0F002836813436360EA
:104F68000D460446036813F0010F75D04268012A04
:104F780013D14FF4003393FAA3F35F4B18684FF43F
:104F8800003393FAA3F3B3FA83F303F01F03012169
:104F980001FA03F3184227D19EE0022A13D14FF0F9
:104FA800007393FAA3F3544B18684FF0007393FA05
:104FB800A3F3B3FA83F303F01F03012101FA03F308
:104FC800184211D18AE0022393FAA3F34A4B1868D6
:104FD800022393FAA3F3B3FA83F303F01F03012127
:104FE80001FA03F318427BD043494B6823F00303CB
:104FF80013434B6000F0E8F806466368012B0ED1B6
:1050080006E000F0E1F8801B41F28833984269D845
:10501800394B5B6803F00C03042BF2D11CE0022B24
:1050280015D106E000F0D0F8801B41F28833984291
:105038005AD8314B5B6803F00C03082BF2D10BE014
:1050480000F0C2F8801B41F2883398424ED82A4BB0
:105058005B6813F00C0FF3D1264B1B6803F00703B2
:10506800AB420AD9234A136823F007032B43136082
:10507800136803F00703AB423AD1236813F0040F17
:1050880006D01D494B6823F4E062E36813434B6084
:10509800236813F0080F07D0174A536823F46053A6
:1050A800216943EAC1035360FFF704FF124B5B68B1
:1050B80003F0F003F02292FAA2F2B2FA82F2D3409D
:1050C8000E4AD35CD8400E4B1860002000F04CF814
:1050D800002070BD012070BD012070BD012070BD91
:1050E800012070BD032070BD032070BD032070BD7A
:1050F800012070BD0020024000100240F077000837
:1051080000000020014B1868704700BF0000002015
:1051180008B5FFF7F7FF074B5B6803F4E0634FF44C
:10512800E06292FAA2F2B2FA82F2D340024AD35C67
:10513800D84008BD001002400078000808B5FFF705
:10514800E1FF074B5B6803F460534FF4605292FA37
:10515800A2F2B2FA82F2D340024AD35CD84008BD28
:10516800001002400078000810B50446074B1B6881
:105178000748A0FB03308009FEF7C4FE4FF0FF305C
:1051880021460022FEF780FE002010BD000000200E
:10519800D34D621008B5074A136843F01003136033
:1051A8000320FEF75FFE0020FFF7DEFFFCF754FF49
:1051B800002008BD00200240024A13680133136032
:1051C800704700BF18360020014B1868704700BFB1
:1051D8001836002030B583B00190FFF7F5FF05467B
:1051E800019CB4F1FF3F00D00134FFF7EDFF401BF5
:1051F800A042FAD303B030BDDFF834D0002103E079
:105208000C4B5B58435004310B480C4B42189A42E4
:10521800F6D30B4A02E0002342F8043B094B9A42BA
:10522800F9D3FFF793F800F011F8FEF7EBFEFEE76D
:1052380000000120A879000800000020A400002038
:10524800A800002020360020FEE7000070B50E4BB5
:105258000E4CE41AA41000251E46A54204D056F8A8
:10526800253098470135F8E702F0D8F9084C094B82
:10527800E41AA41000251E46A54204D056F825308D
:1052880098470135F8E770BDA0790008A0790008B3
:10529800A4790008A079000802440346934202D08A
:1052A80003F8011BFAE770472DE9FF4755EC104B4F
:1052B8000D9FDDF830A0002D0E4691461946B8BF67
:1052C80022462B4627F02007BBBF05F100431D46A9
:1052D80000232D23B8BF1446462F0B7003D0452F4B
:1052E80003D1013601E0032100E0022102AB009363
:1052F80003AB019345EC104B3246534600F030FDAA
:10530800472F804602D119F0010F26D0462F08EB0F
:10531800060911D198F80030302B0AD120462946C9
:1053280000220023FBF7A6FB18B9C6F10106CAF84C
:105338000060DAF80030994420462946002200230C
:10534800FBF798FB08B1CDF80C90039B4B4504D2B2
:105358005A1C039230221A70F7E7039B0E9AC8EB87
:1053680003034046136004B0BDE8F08773B50346F5
:105378000029B8BF494203F8022BB4BF2D222B22C3
:105388000929427019DD0DF1070426460A2291FB0E
:10539800F2F502FB15113031092D04F8011D2946DB
:1053A800F4DC3031651E04F8011CB5421A460AD2F5
:1053B80015F8012B03F8012BF7E730241A4621448E
:1053C80002F8024B5970101A02B070BD2DE9F04F67
:1053D8008BB08B4615461E46149F044601F080FA92
:1053E800D0F800A0504600F023FC002308933B6847
:1053F8000590073323F0070303F108029BF8188090
:105408003A60D3E90023CBE912239BED120B00F09D
:10541800B1FB01281BD1DBE9120100220023FBF7B5
:1054280033FB10B12D238BF84330B54BB54FB8F192
:10543800470F88BF1F460323CBF81030DBF8003036
:1054480023F00403CBF800304FF000099FE09BEDF8
:10545800120B00F08FFBDBF8002068B9AA4BAB4FAA
:1054680022F00402B8F1470F88BF1F460323CBF888
:105478001030CBF80020E7E7DBF804104F1C9BED59
:10548800120B01D1062309E0B8F1670F02D0B8F179
:10549800470F05D1002940F0C1810123CBF8043022
:1054A80007AB8DE8080108AB42F480620293002341
:1054B8000393CBF800200DF11B032046DBF8041002
:1054C800FFF7F2FE08F0DF03472B07460AD1079BD8
:1054D800D81C03DBDBF80420934237DDA8F102086F
:1054E8005FFA88F8B8F1650F079915D8013942466F
:1054F8000BF150000791FFF739FF089A8318012A2A
:105508008146CBF8103003DCDBF80020D10738D512
:105518000133CBF8103034E0B8F1660F18D1002908
:10552800DBF8043009DDCBF810101BB9DBF80020DC
:10553800D20721D501330B441CE01BB9DBF800204E
:10554800D00701D5023315E0012313E04FF06708B7
:10555800079B089A934207DBDBF80020CBF8103052
:10556800D10709D5013305E0002BD4BFC3F10203ED
:1055780001231344CBF81030079BCBF858304FF079
:1055880000099DF81B3013B12D238BF8433000968A
:105598002046594609AA2B4600F056F9013002D197
:1055A8004FF0FF304CE1DBF800305A0505D42046B7
:1055B80029463A46DBF8103008E1B8F1650F40F2A9
:1055C800D080DBE9120100220023FBF753FA50B325
:1055D800204629464E4A0123B0470130E0D0089BB7
:1055E800079A9A4209DBDBF80030D80705D4DBF8C4
:1055F80000309F0700F1108107E1204629465246F6
:10560800059BB0470130CBD00027089B013B9F4248
:10561800EDDA204629460BF11A020123B047013082
:10562800BED00137F1E7079B002B29DC204629462D
:10563800374A0123B0470130B2D0079B2BB9089BEA
:105648001BB9DBF80030D907D1D520462946524688
:10565800059BB0470130A3D04FF00008079B5B4281
:1056680098452046294608DA0BF11A020123B0476B
:10567800013095D008F10108F0E73A46089BA5E00B
:10568800DBF85820089B9A42A8BF1A46002A914680
:1056980002DC4FF0000812E0204629463A464B4605
:1056A800B0470130F5D17BE7204629460BF11A02B5
:1056B8000123B04701303FF473AF08F10108DBF86C
:1056C8005830B9F1000FACBFC9EB03021A46904538
:1056D800EADB07EB0308079A089B9A421ADBDBF818
:1056E8000030DA0716D4089A1744C8EB0703079F57
:1056F800D21B9342A8BF1346002B1F4612DC18E0AA
:105708003A78000836780008427800083E780008A1
:1057180046780008204629465246059BB047013086
:10572800E1D13DE7204629464246B04701303FF4E3
:1057380037AF4FF000080AE0204629460BF11A025D
:105748000123B04701303FF42BAF08F10108079A55
:10575800089B002FA3EB0203A8BFDB1B9845EBDBDC
:1057680045E7089A012A01DCDB0736D52046294699
:105778003A460123B04701303FF412AF204629468C
:105788005246059BB04701303FF40AAFDBE91201EE
:1057980000220023FBF76EF9E8B9089B204629464A
:1057A8007A1C013B1DE0204629460BF11A02012311
:1057B800B04701303FF4F4AE0137089B013B9F42EC
:1057C800F1DB204629460BF150024B46B047013029
:1057D8007FF40DAFE4E60027EFE7204629463A4676
:1057E8000123B0470130ECD1DAE6204629460BF117
:1057F80019020123B04701303FF4D2AE0137DBF87C
:105808000C30099A9B1A9F42EFDBDBF80C00099BCE
:105818009842B8BF184613E00027F0E707AB8DE8B9
:10582800080108AB42F48062029300230393CBF88B
:10583800002020460DF11B03FFF736FD074646E61C
:105848000BB0BDE8F08F00BF2DE9F84391461F4625
:105858008A680B69DDF820809342B8BF1346C9F8FF
:10586800003091F8432006460C4612B10133C9F8BE
:1058780000302368990642BFD9F800300233C9F8CE
:105888000030256815F006051CD094F843302268CE
:10589800003318BF012392061FD5E1185A1C302087
:1058A80081F84300224494F8451082F843100233EB
:1058B80013E03046394604F119020123C04701308C
:1058C80007D00135E368D9F800209B1A9D42F0DB28
:1058D800DBE74FF0FF30BDE8F8833046394604F186
:1058E8004302C0470130F4D02268D9F80050E36879
:1058F80002F00602042A08BF5D1B2269A3680CBFD8
:1059080025EAE57500259342C4BF9B1AED184FF0B0
:105918000009A9450ADA3046394604F11A0201237A
:10592800C0470130D5D009F10109F2E70020BDE8F0
:10593800F88300002DE9FF410C461746227E6E2AA7
:10594800984606460A9B01F1430100F0AF8012D841
:10595800632A23D00AD8002A00F0BC80582A40F0D5
:10596800CB8084F84520DFF804E257E0642A1ED093
:10597800692A1CD0C0E0732A00F0B08009D86F2AC9
:105988002ED0702A40F0B880226842F020022260AF
:105998003FE0752A24D0782A3BD0ADE01A68111D63
:1059A8001960136884F8423004F14205A8E02068C1
:1059B8001A6810F0800F02D0101D186008E010F06F
:1059C800400F02F10400186002D0B2F9003000E084
:1059D8001368002B3EDA2D225B4284F8432039E01D
:1059E80020681A6810F0800F02D0101D186007E0B8
:1059F80010F0400F02F10400186001D0138800E095
:105A08001368227EDFF864E16F2A0CBF08220A229D
:105A18001CE07822DFF858E184F8452022681868ED
:105A280012F0800F00F104051D6003D1550601D561
:105A3800038800E00368D00744BF42F020022260D8
:105A48001BB9226822F0200222601022002084F86C
:105A5800430002E0DFF814E10A226568A560002D22
:105A6800A2BF206820F00400206003B965B10D468C
:105A7800B3FBF2F002FB10331EF8033005F8013DCA
:105A880003460028F4D100E00D46082A0BD123680C
:105A9800DA0708D5236962689A42DEBF302305F821
:105AA800013C05F1FF35491B21612EE025681A6884
:105AB800606915F0800F03D0151D1D60136808E09C
:105AC80015F0400F02F104051D60136801D018801D
