:020000040800F2
:10000000000001202D2400087D2400087D24000824
:100010007D2400087D2400087D24000800000000E5
:100020000000000000000000000000007D24000827
:100030007D240008000000007D240008D509000888
:100040007D2400087D2400087D2400087D2400080C
:100050007D2400087D2400087D2400087D240008FC
:100060007D2400087D2400087D2400087D240008EC
:100070007D2400087D2400087D2400087D240008DC
:100080007D2400087D2400087D2400087D240008CC
:100090007D2400087D2400087D2400087D240008BC
:1000A0007D2400087D2400087D2400087D240008AC
:1000B0007D2400087D2400087D2400087D2400089C
:1000C0007D2400087D2400087D2400087D2400088C
:1000D0007D2400087D2400087D2400087D2400087C
:1000E0007D2400087D2400087D2400087D2400086C
:1000F0007D2400087D2400087D2400087D2400085C
:100100007D24000800000000000000007D2400089D
:100110007D2400087D2400087D2400087D2400083B
:10012000E10900087D2400087D2400087D240008E2
:100130007D2400087D24000800000000000000006D
:100140007D2400087D2400087D24000800000000B4
:10015000000000000000000000000000000000009F
:100160007D2400087D2400087D2400087D240008EB
:100170007D2400087D2400087D2400087D240008DB
:100180007D2400087D24000800000000000000001D
:040190007D240008C2
:10019400044B05481B1A062B02D9044B03B118471C
:1001A400704700BF0700002004000020000000008A
:1001B40005490648091A891001EBD171491002D08A
:1001C400034B03B1184770470400002004000020CB
:1001D4000000000010B5064C237843B9FFF7D8FFA0
:1001E400044B13B10448AFF300800123237010BD06
:1001F40004000020000000008024000808B5084B1B
:100204001BB108490848AFF300800848036813B9D4
:10021400BDE80840CCE7064B002BF9D09847F7E738
:1002240000000000080000208024000804000020D2
:100234000000000070B50F4E0F4D761BB61018BFAE
:10024400002405D0013455F8043B9847A642F9D15F
:100254000A4E0B4D761B02F011F9B61018BF00249C
:1002640006D0013455F8043B9847A642F9D170BD35
:1002740070BD00BFF4240008F4240008F82400082A
:10028400F424000838B50446826803691A434369B4
:100294001A43C3691A43016808689C4B034013431B
:1002A4000B6021684B6823F44052E36813434B60AE
:1002B400A269236A1A4321688B6823F430631343C9
:1002C4008B602568924B9D4212D103F558431B6BFA
:1002D40003F00303032B09D8DFE803F00204067ECE
:1002E400012384E0042382E0082380E010237EE0DD
:1002F400884B9D4219D103F5E6331B6B03F440335D
:10030400B3F5803F0BD001D83BB10CE0B3F5003F0F
:1003140007D0B3F5403F61D005E0002367E0042334
:1003240065E0082363E0102361E07B4B9D4219D113
:1003340003F5E4331B6B03F44023B3F5802F0BD098
:1003440001D83BB10CE0B3F5002F07D0B3F5402F33
:1003540046D005E000234AE0042348E0082346E0B1
:10036400102344E06D4B9D4219D103F5E2331B6B1E
:1003740003F44013B3F5801F0BD001D83BB10CE05C
:10038400B3F5001F07D0B3F5401F2BD005E00023C1
:100394002DE004232BE0082329E0102327E0604B01
:1003A4009D4221D103F5E0331B6B03F44003B3F505
:1003B400800F0BD001D83BB10CE0B3F5000F07D090
:1003C400B3F5400F12D005E0002310E004230EE043
:1003D40008230CE010230AE0022308E0022306E0CD
:1003E400022304E0022302E0102300E00223E26976
:1003F400B2F5004F47D1082B3BD8DFE803F00510D6
:100404001B3A263A3A3A310000F0E0FF63685A0892
:1004140002EB4000B0FBF3F39BB200202BE000F0B2
:10042400EDFF63685A0802EB4000B0FBF3F39BB2A4
:10043400002020E061684A0802F5740303F51053B4
:10044400B3FBF1F39BB2002015E000F08FFE63686C
:100454005A0802EB4000B0FBF3F39BB200200AE021
:100464006268530803F58033B3FBF2F39BB20020B8
:1004740001E00120002323F00F02C3F342031343DE
:100484002268D36038BD082B3DD8DFE803F005109F
:100494001B3C273C3C3C320000F098FF636800EBB7
:1004A4005300B0FBF3F080B2E860002038BD00F0E8
:1004B400A5FF636800EB5300B0FBF3F080B2E86083
:1004C400002038BD61684A0802F5F40303F590532F
:1004D400B3FBF1F39BB2EB60002038BD00F046FEA5
:1004E400636800EB5300B0FBF3F080B2E8600020D7
:1004F40038BD6268530803F50043B3FBF2F39BB2C3
:10050400EB60002038BD012038BD00BFF369FFEF68
:10051400003801400044004000480040004C0040C6
:1005240000500040436A13F0010F06D001684B6885
:1005340023F40032836A13434B60436A13F0020FBF
:1005440006D001684B6823F48032C36A13434B60BE
:10055400436A13F0040F06D001684B6823F4802229
:10056400036B13434B60436A13F0080F06D0016812
:100574004B6823F40042436B13434B60436A13F00C
:10058400100F06D001688B6823F48052836B1343E9
:100594008B60436A13F0200F06D001688B6823F444
:1005A4000052C36B13438B60436A13F0400F11D0A6
:1005B40001684B6823F48012036C13434B60036C93
:1005C400B3F5801F06D101684B6823F4C002436C65
:1005D40013434B60436A13F0800F06D001684B68E5
:1005E40023F40022836C13434B6070472DE9F041E0
:1005F40005460F4616469846069C1EE0B4F1FF3F9A
:100604001BD02CB100F024F9C8EB0000844214D2B2
:100614002A68136823F4D07313602A68936823F05C
:1006240001039360202385F8693085F86A3000233C
:1006340085F868300320BDE8F0812B68DB6937EA70
:1006440003030CBF01230023B342D7D00020BDE82D
:10065400F08100BF30B583B004460023C36600F0C8
:10066400F7F8054623681B6813F0080F0AD06FF0EB
:100674007E430093034600224FF400112046FFF707
:10068400B5FFC0B923681B6813F0040F0AD06FF0DC
:100694007E4300932B4600224FF480012046FFF74F
:1006A400A5FF50B9202384F8693084F86A3000200B
:1006B40084F8680002E0032000E0032003B030BDAA
:1006C40080B310B5044690F8693013F0FF0F04D1DD
:1006D400002380F8683001F059F9242384F8693044
:1006E4002268136823F0010313602046FFF7CAFD54
:1006F400012819D0636A13B12046FFF713FF22685B
:10070400536823F4904353602268936823F02A03C8
:1007140093602268136843F0010313602046FFF7D7
:1007240099FF10BD0120704710BD00BFFEE700BF58
:1007340000B5A7B002231C9301221F92102220921D
:1007440022934FF4004323934FF4E01324930023A4
:1007540025931CA800F0F6F918B18D211B48FFF76A
:10076400E5FF0F23179302211891002319934FF4E7
:1007740080621A921B9317A800F030FD18B19B21D8
:100784001248FFF7D3FF82230193002304934FF40D
:1007940080730B9301A800F049FE18B1A3210B4804
:1007A400FFF7C4FF00F00CFE094BA3FB00308009E7
:1007B40000F0A4F8042000F0B7F8002211464FF02E
:1007C400FF3000F05DF827B05DF804FB98240008C2
:1007D400D34D621008B500F021F8FFF7A9FF01F02E
:1007E400FBF801F007FE01F0B1F801F0BBFCFEE7F5
:1007F40010B50446074B1B680748A0FB033080096B
:1008040000F07CF8002221464FF0FF3000F038F869
:10081400002010BD00000020D34D621008B5074A27
:10082400136843F010031360032000F017F800204E
:10083400FFF7DEFF00F08EF8002008BD0020024024
:10084400024A136801331360704700BF2000002080
:10085400014B1868704700BF20000020074AD36886
:1008640023F4E0631B041B0C000200F4E060184353
:1008740040F0BF6040F40030D060704700ED00E00D
:1008840030B4164BDB68C3F30223C3F10704042C12
:1008940028BF04241D1D062D01D9DD1E00E00025FE
:1008A400012303FA04F4013C2140A940AB40013B7D
:1008B4001A400A43002806DA00F00F001201D2B2EF
:1008C400074B1A5407E01201D2B200F1604000F560
:1008D400614080F8002330BC704700BF00ED00E0A9
:1008E40014ED00E0420900F01F00012303FA00F0B8
:1008F400014B43F82200704700E100E00138B0F1F9
:10090400807F0AD2064B5860F021064A82F82310F1
:100914000020986007221A6070470120704700BFCA
:1009240010E000E000ED00E0042805D1054A13685A
:1009340043F0040313607047024A136823F004036E
:100944001360704710E000E0704700BF08B5FFF780
:10095400FBFF08BD00B583B01C4B9A6942F001024D
:100964009A619B6903F001030193019B0720FFF740
:1009740075FF002211466FF00B00FFF781FF002284
:1009840011466FF00A00FFF77BFF002211466FF05B
:100994000900FFF775FF002211466FF00400FFF70E
:1009A4006FFF002211466FF00300FFF769FF00227A
:1009B40011466FF00100FFF763FF002211464FF06C
:1009C400FF30FFF75DFF03B05DF804FB0010024049
:1009D40008B5FFF735FFFFF7B9FF08BD08B50248B2
:1009E40000F056F808BD00BFE800002002680C4B78
:1009F4009A420AD80B4B13440B4AA2FB03231B094C
:100A04009B000364094BC3637047094B1344064AB4
:100A1400A2FB03231B099B000364064BC3637047BB
:100A240007040240F8FFFDBFCDCCCCCC000002404F
:100A3400F8FBFDBF0004024040B310B50446022396
:100A440080F821300068036823F47F5222F03002DA
:100A54006168A3681943E368194323691943636907
:100A64001943A3691943E3690B4313430360204605
:100A7400FFF7BCFF0020A062E06220636063A06314
:100A8400012384F8213084F8200010BD0120704730
:100A940038B5C36B1A6804682568016C04238B405D
:100AA4001A4214D015F0040F11D0236813F0200F4C
:100AB40003D1236823F004032360C26B016C042375
:100AC4008B405360C36A002B3AD0984738BD022349
:100AD4008B401A4219D015F0020F16D0236813F078
:100AE400200F06D1236823F00A032360012380F832
:100AF4002130C26B016C02238B405360002380F8C9
:100B04002030836AE3B1984738BD082303FA01F122
:100B14000A4215D015F0080F12D0236823F00E03F3
:100B24002360C16B026C012303FA02F24A608363FF
:100B340080F82130002380F82030036B03B19847FC
:100B440038BD00BF70B582B00446036813F0010FCE
:100B540000F09880B54B5B6803F00C03042B0CD0B9
:100B6400B24B5B6803F00C03082B1DD1AF4B5B68E1
:100B740003F4C033B3F5803F16D14FF4003393FA36
:100B8400A3F3AA4B19684FF4003393FAA3F3B3FA0F
:100B940083F303F01F03012202FA03F3194271D015
:100BA4006368002B6ED1BAE26368B3F5803F05D168
:100BB4009E4A136843F48033136026E063B903F15B
:100BC400804303F504331A6822F480321A601A68E9
:100BD40022F480221A6018E0B3F5A02F0CD103F19F
:100BE4008043A3F53C331A6842F480221A601A68E1
:100BF40042F480321A6008E08C4B1A6822F4803286
:100C04001A601A6822F480221A606368EBB1FFF755
:100C14001FFE054605E0FFF71BFE401B642800F29B
:100C240080824FF4003393FAA3F3804B19684FF496
:100C3400003393FAA3F3B3FA83F303F01F030122FF
:100C440002FA03F31942E6D01CE0FFF701FE054661
:100C540005E0FFF7FDFD401B642800F264824FF4B9
:100C6400003393FAA3F3714B19684FF4003393FAEA
:100C7400A3F3B3FA83F303F01F03012202FA03F38D
:100C84001942E6D1236813F0020F00F09280674BFB
:100C94005B6813F00C0F0CD0644B5B6803F00C031F
:100CA400082B29D1614B5B6803F4C033B3F5004FC3
:100CB40022D1022393FAA3F35C4B1968022393FA1B
:100CC400A3F3B3FA83F303F01F03012202FA03F33D
:100CD400194203D0E368934240F0278253480368E3
:100CE40023F0F8012369F82292FAA2F2B2FA82F20E
:100CF40093400B4303605CE0E3689BB3012292FAE8
:100D0400A2F3B3FA83F303F1845303F584139B0032
:100D14001A60FFF79DFD054605E0FFF799FD401BAE
:100D2400022800F20482022393FAA3F33F4B1968CA
:100D3400022393FAA3F3B3FA83F303F01F0301220C
:100D440002FA03F31942E8D03848036823F0F801A3
:100D54002369F82292FAA2F2B2FA82F293400B4388
:100D6400036026E0012393FAA3F3B3FA83F303F1B8
:100D7400845303F584139B0000221A60FFF768FD77
:100D8400054605E0FFF764FD401B022800F2D1810F
:100D9400022393FAA3F3254B1968022393FAA3F3CE
:100DA400B3FA83F303F01F03012202FA03F3194297
:100DB400E8D1236813F0080F56D063693BB30121CF
:100DC40091FAA1F2B2FA82F2194B13449B00196012
:100DD400FFF73EFD054605E0FFF73AFD401B0228FC
:100DE40000F2A981022393FAA3F293FAA3F293FAED
:100DF400A3F20E4A516A93FAA3F3B3FA83F303F00E
:100E04001F03012202FA03F31942E5D02CE0012268
:100E140092FAA2F2B2FA82F2054B13449B0000222A
:100E24001A60FFF715FD05460AE000BF00100240F6
:100E340020819010FFF70CFD401B022800F27D81F9
:100E4400022393FAA3F293FAA3F293FAA3F2BE4A0B
:100E5400516A93FAA3F3B3FA83F303F01F03012255
:100E640002FA03F31942E5D1236813F0040F00F0EA
:100E7400BA80B54BDB6913F0805F0BD1B24BDA69F2
:100E840042F08052DA61DB6903F080530193019BE5
:100E9400012500E00025AD4B1B6813F4807F13D1BE
:100EA400AA4A136843F480731360FFF7D1FC064623
:100EB40005E0FFF7CDFC801B642800F24081A34BC2
:100EC4001B6813F4807FF4D0A368012B05D19E4ADC
:100ED400136A43F00103136222E063B903F1804310
:100EE40003F504331A6A22F001021A621A6A22F024
:100EF40004021A6214E0052B09D1934B1A6A42F0DA
:100F040004021A621A6A42F001021A6208E08E4B65
:100F14001A6A22F001021A621A6A22F004021A62A0
:100F2400A3686BB3FFF794FC064607E0FFF790FC59
:100F3400801B41F28833984200F20381022393FA22
:100F4400A3F293FAA3F3B3FA83F35B0943F0020326
:100F5400DBB2022B02D17C4B196A04E0022393FA20
:100F6400A3F3794B596A022393FAA3F3B3FA83F3F5
:100F740003F01F03012202FA03F31942D6D02CE036
:100F8400FFF766FC064607E0FFF762FC801B41F2B0
:100F94008833984200F2DC80022393FAA3F293FA96
:100FA400A3F3B3FA83F35B0943F00203DBB2022B2E
:100FB40002D1654B196A04E0022393FAA3F3624B4E
:100FC400596A022393FAA3F3B3FA83F303F01F03DA
:100FD400012202FA03F31942D6D125B15A4AD36940
:100FE40023F08053D361A369002B00F0B380564AE9
:100FF400526802F00C02082A00F0AE80022B63D182
:101004004FF0807393FAA3F3B3FA83F303F1845399
:1010140003F584139B0000221A60FFF719FC0546B0
:1010240005E0FFF715FC401B022800F297804FF003
:10103400007393FAA3F3444B19684FF0007393FAC7
:10104400A3F3B3FA83F303F01F03012202FA03F3B9
:101054001942E6D13C49CB6A23F00F02636A134379
:10106400CB624B6823F47610236AE269134303438B
:101074004B604FF0807393FAA3F3B3FA83F303F155
:10108400845303F584139B0001221A60FFF7E0FBED
:10109400044604E0FFF7DCFB001B022860D84FF095
:1010A400007393FAA3F3284B19684FF0007393FA73
:1010B400A3F3B3FA83F303F01F03012202FA03F349
:1010C4001942E7D000204EE04FF0807393FAA3F367
:1010D400B3FA83F303F1845303F584139B000022D2
:1010E4001A60FFF7B5FB044604E0FFF7B1FB001BF1
:1010F400022837D84FF0007393FAA3F3124B196800
:101104004FF0007393FAA3F3B3FA83F303F01F03CE
:10111400012202FA03F31942E7D1002023E001205F
:1011240021E003201FE003201DE001201BE0032039
:1011340019E0032017E0032015E0032013E0032047
:1011440011E003200FE000BF0010024000700040D7
:10115400032008E0002006E0012004E0032002E070
:10116400032000E0032002B070BD00BF174B5B6892
:1011740003F00C02082A27D103F470114FF4701203
:1011840092FAA2F2B2FA82F221FA02F210498A5CCD
:101194000E49C96A01F00F000F2191FAA1F1B1FAC9
:1011A40081F120FA01F10B48405C13F4803F05D033
:1011B400094BB3FBF0F000FB02F07047064BB3FBA6
:1011C400F0F000FB02F07047034870470010024043
:1011D400B4240008A424000800127A0070B5744BEB
:1011E4001B6803F007038B420BD2714A136823F088
:1011F40007030B431360136803F00703994240F09D
:10120400C680036813F0020F06D06A4C636823F0AB
:10121400F0028368134363600D460446036813F0C9
:10122400010F75D04268012A13D14FF4003393FAA9
:10123400A3F3604B18684FF4003393FAA3F3B3FAA3
:1012440083F303F01F03012101FA03F3184227D1AA
:101254009FE0022A13D14FF0007393FAA3F3554B86
:1012640018684FF0007393FAA3F3B3FA83F303F00F
:101274001F03012101FA03F3184211D18BE0022369
:1012840093FAA3F34B4B1868022393FAA3F3B3FA2C
:1012940083F303F01F03012101FA03F318427CD006
:1012A40044494B6823F0030313434B60FFF7D0FA20
:1012B40006466368012B0ED106E0FFF7C9FA801BCE
:1012C40041F2883398426AD83A4B5B6803F00C03C6
:1012D400042BF2D11CE0022B15D106E0FFF7B8FA7B
:1012E400801B41F2883398425BD8324B5B6803F031
:1012F4000C03082BF2D10BE0FFF7AAFA801B41F292
:10130400883398424FD82B4B5B6813F00C0FF3D102
:10131400274B1B6803F007039D420AD2244A136833
:1013240023F007032B431360136803F007039D4264
:101334003BD1236813F0040F06D01E494B6823F4F5
:10134400E062E36813434B60236813F0080F07D08F
:10135400184A536823F46053216943EAC103536074
:10136400FFF704FF134B5B6803F0F002F02393FADA
:10137400A3F3B3FA83F322FA03F30F4AD35CD840FE
:101384000E4B18600020FFF733FA002070BD0120D7
:1013940070BD012070BD012070BD012070BD03200F
:1013A40070BD032070BD032070BD012070BD00BF5F
:1013B4000020024000100240C42400080000002065
:1013C400014B1868704700BF0000002008B5FFF704
:1013D400F7FF084B5B6803F4E0624FF4E06393FAB1
:1013E400A3F3B3FA83F322FA03F3034AD35CD8409A
:1013F40008BD00BF00100240D424000808B5FFF760
:10140400DFFF084B5B6803F460524FF4605393FAB8
:10141400A3F3B3FA83F322FA03F3034AD35CD84069
:1014240008BD00BF00100240D4240008F0B583B00A
:101434000446036813F4803F00F09180364BDB6967
:1014440013F0805F0BD1344BDA6942F08052DA61D9
:10145400DB6903F080530193019B012500E0002523
:101464002E4B1B6813F4807F13D12C4A136843F46A
:1014740080731360FFF7ECF9064605E0FFF7E8F91F
:10148400801B642800F24981244B1B6813F4807F7D
:10149400F4D0214B1B6A13F4407354D0626802F4F5
:1014A400407293424FD01C4E306A20F440774FF480
:1014B400803191FAA1F3B3FA83F3194A13449B00E0
:1014C4004FF0010EC3F800E091FAA1F1B1FA81F1F5
:1014D4000A44920000231360376210F0010F32D0E7
:1014E400FFF7B6F9064607E0FFF7B2F9801B41F2B1
:1014F4008833984200F21381022393FAA3F293FAF9
:10150400A3F3B3FA83F35B0943F00203DBB2022BC8
:1015140008D1014B196A0AE0001002400070004033
:1015240000819010022393FAA3F37F4B596A02239C
:1015340093FAA3F3B3FA83F303F01F03012202FA2D
:1015440003F31942D0D078490B6A23F440726368DC
:1015540013430B621DB1CB6923F08053CB61236825
:1015640013F0010F06D070490B6B23F00302A3683C
:1015740013430B63236813F0020F06D06A490B6B05
:1015840023F44032E36813430B63236813F0040F1E
:1015940006D065490B6B23F44022236913430B6384
:1015A400236813F0200F06D05F490B6B23F0100261
:1015B400E36913430B63236813F4003F06D05A49CD
:1015C4004B6823F48002636D13434B60236813F06C
:1015D400400F06D054490B6B23F02002236A1343B7
:1015E4000B63236813F4802F06D04F490B6B23F051
:1015F4004002636A13430B63236813F0080F06D099
:1016040049490B6B23F44012636913430B6323684A
:1016140013F0100F06D044490B6B23F44002A36966
:1016240013430B63236813F4007F06D03E494B68D1
:1016340023F40002236B13434B60236813F0800FE1
:1016440006D03949CB6A23F4F872A36A1343CB62F8
:10165400236813F4807F06D03349CB6A23F478528D
:10166400E36A1343CB62236813F4805F06D02E49E8
:101674000B6B23F48072636B13430B63236813F4C3
:10168400005F06D028490B6B23F40072236C1343CC
:101694000B63236813F4801F06D023490B6B23F0DC
:1016A4008072A36B13430B63236813F4001F06D0EB
:1016B4001D490B6B23F00072E36B13430B63236828
:1016C40013F4800F06D018490B6B23F48062636C0B
:1016D40013430B63236813F4000F06D012490B6BFA
:1016E40023F40062A36C13430B63236813F0807F1D
:1016F40006D00D490B6B23F40052E36C13430B63C8
:10170400236813F0007F0CD007490B6B23F40042CD
:10171400236D13430B63002004E0032002E0032045
:1017240000E0002003B0F0BD00100240F0B583B02B
:101734000023C1E001249C40224000F0BC804D689D
:10174400022D01D0122D10D1DE08083650F826C023
:1017540003F00705AF000F25BD402CEA050E0D6907
:10176400BD404EEA050540F8265005685F00032693
:10177400BE40F64305EA060E4D6805F00305BD407C
:101784004EEA050505604D6805F1FF3EBEF1010F07
:1017940003D9112D01D0122D10D1856806EA050E4A
:1017A400CD68BD404EEA05058560456825EA040418
:1017B4004D68C5F300159D4025434560C468264027
:1017C4008C68BC403443C4604C6814F0805F72D0B1
:1017D4003D4CA56945F00105A561A46904F0010427
:1017E4000194019C9E08B51C384C54F8257003F0F4
:1017F4000304A4000F25A54027EA0507B0F1904F84
:1018040018D0334DA84217D005F58065A84215D0ED
:1018140005F58065A84213D005F58065A84211D06E
:1018240005F58065A8420FD005F58065A8420DD165
:1018340006250CE000250AE0012508E0022506E063
:10184400032504E0042502E0052500E0072505FA48
:1018540004F43C4302361D4D45F826401D4C2568D2
:10186400D44305EA04064F6817F4803F01D042EAE6
:101874000506184D2E606D6804EA05064F6817F4D6
:10188400003F01D042EA0506124D6E60AD6804EADD
:1018940005064F6817F4801F01D042EA05060D4D76
:1018A400AE60ED682C404E6816F4001F01D042EA89
:1018B4000504084AD46001330A6832FA03F47FF459
:1018C40039AF03B0F0BD00BF00100240000001407A
:1018D40000040048000401400AB18161704781623C
:1018E400704700BF1549D1F8883043F47003C1F83C
:1018F4008830134B1A6842F001021A605868114A82
:1019040002405A601A6822F0847222F480321A600B
:101914001A6822F480221A605A6822F4FE025A607D
:10192400DA6A22F00F02DA62186B074A02401A637D
:1019340000229A604FF000638B60704700ED00E076
:10194400001002400CC07FF8CCFC00FF08B50C4826
:101954000C4B03604FF4E133436000238360C360A6
:1019640003610C2242618361C36103624362FEF737
:10197400A7FE18B144210448FEF7D8FE08BD00BFF5
:101984002400002000440040DC2400080268114BBD
:101994009A421DD100B587B003F5E633DA6942F403
:1019A4000032DA61DB6903F400330093009B0C23FB
:1019B40001930223029300230393049307230593C3
:1019C40001A94FF09040FFF7B1FE07B05DF804FBAA
:1019D400704700BF0044004010B58AB0214B5A69DB
:1019E40042F400225A615A6902F400220192019AD7
:1019F4005A6942F480025A615A6902F480020292DE
:101A0400029A5A6942F400325A615A6902F4003265
:101A14000392039A5A6942F480225A615B6903F47F
:101A240080230493049B002220214FF09040FFF771
:101A340053FF4FF4005305930B4B06930024079474
:101A440005A90A48FFF772FE202305930123069394
:101A54000794089405A94FF09040FFF767FE0AB079
:101A640010BD00BF00100240000021100008004813
:101A740038B50268936803F00303012B05D113689A
:101A840013F0010F03D1002302E0002300E001233F
:101A9400002B30D0936803F00D03012B0BD10446C7
:101AA400936843F002039360036803221A60FEF70D
:101AB400CFFE054618E0436C43F010034364836C87
:101AC40043F001038364012038BDFEF7C1FE401BCF
:101AD400022809D9636C43F010036364A36C43F0D8
:101AE4000103A364012038BD23689B6813F0010F30
:101AF400EBD1002038BD002038BD00BF70B596B0D2
:101B040000230093002800F046810446436C13F040
:101B1400100F52D1436C002B37D183640365C36427
:101B240080F8403000F00AFC23689B6813F0805F63
:101B34002DD12046FFF79CFF636C13F0100F27D1C3
:101B440030BB636C23F4885323F0020343F0020395
:101B540063642268936823F0405393602268936817
:101B640043F0805393608D4B1B688D4AA2FB032383
:101B74009B0C03EB83035A00009202E0009B013BA1
:101B84000093009B002BF9D102E0002000E000202C
:101B940023689A6812F0805F03D09B6813F0005F9B
:101BA4000CD0636C23F0120343F010036364A36C42
:101BB40043F00103A364012000E00020636C13F0F0
:101BC400100F40F0E080002840F0DD8023689A6820
:101BD40012F0040140F0D780626C22F4817242F06A
:101BE40002026264B3F1A04F04D06E4A934203D15F
:101BF4006D4D02E06C4D00E06C4DB3F1A04F03D18C
:101C040003F58073019314E0664A934203D14FF0C5
:101C1400A04301930DE0664A934202D1654B0193C0
:101C240007E0644A934202D1614B019301E000232F
:101C340001932268936803F00303012B05D1136811
:101C440013F0010F03D1002302E0002300E001237D
:101C540093B9019E56B1B26802F00302012A04D17D
:101C6400326812F0010F00D001232BB9AB6823F4C2
:101C7400403263681343AB60E5696B03A26B012ACE
:101C840001D04FF4805141EA0302E3681343A26890
:101C94001A43636A012B11D135B9A36A013B42EAA5
:101CA400434343F4803209E0636C23F0220343F09E
:101CB40020036364A36C43F00103A364E36A012B70
:101CC40030D021683A4DA94203D005F58075A94268
:101CD40014D1B3F5307F14D0B3F5807F14D0B3F5AD
:101CE400E07F14D0B3F58A5F14D0B3F5845F14D0C9
:101CF400B3F5865F13D14FF4C07310E023F480531F
:101D04000DE04FF4E0730AE04FF4307307E04FF452
:101D1400807304E04FF4707301E04FF4A073216BFF
:101D24000B431A432368996811F00C0F0BD1D9683F
:101D340021F4804121F00201D960A169636B5B0049
:101D440043EA81331A432168CD681B4B2B4013436C
:101D5400CB602369012B08D121680B6B23F00F02A0
:101D6400236A013B13430B6304E02268136B23F0E3
:101D74000F0313630023A364636C23F0030343F092
:101D84000103636408E0636C23F0120343F010035F
:101D94006364012000E0012016B070BD0000002043
:101DA40083DE1B4300010050000300500007005075
:101DB400000400500005005007C0F0FF70B497B055
:101DC4000023009390F84030012B00F0B7810123E9
:101DD40080F840300268936813F0040F40F09C814F
:101DE4004B68042B0CD8156B03EB43035E001F23D5
:101DF400B34025EA03040B68B340234313632CE088
:101E0400092B0DD8566B03EB43035C001E3C1F23C8
:101E1400A34026EA03050B68A3402B4353631CE04D
:101E24000E2B0DD8966B03EB43035C003C3C1F2345
:101E3400A34026EA03050B68A3402B4393630CE0FD
:101E4400D66B03EB43035C005A3C1F23A34026EAF2
:101E540003050B68A3402B43D3630268936813F014
:101E64000C0F40F088800B68092B0DD9946903EBA3
:101E740043031E3B07259D4024EA05058C6804FAAC
:101E840003F32B4393610BE0546903EB43030725EE
:101E94009D4024EA05058C6804FA03F32B4353613F
:101EA4004A690468E368C3F3C1035B0002FA03F3FD
:101EB4000A69013A032A2FD8DFE802F0020D182339
:101EC400226EA04D15400A6843EA82632B4343F017
:101ED400004323664FE0626E9A4D15400A6843EA58
:101EE40082632B4343F00043636644E0A26E954D46
:101EF40015400A6843EA82632B4343F00043A36618
:101F040039E0E56E8F4A2A400D6843EA856313433E
:101F140043F00043E3662EE0236E03F0F8430A68BF
:101F2400B3EB826F03D1236E23F000432366026870
:101F3400536E03F0F8430C68B3EB846F03D1536E14
:101F440023F0004353660268936E03F0F8430C6871
:101F5400B3EB846F03D1936E23F00043936602685E
:101F6400D36E03F0F8430C68B3EB846F03D1D36EE4
:101F740023F00043D3660268936803F00303012B44
:101F840005D1136813F0010F03D1002402E00024EB
:101F940000E00124002C40F0C580CB68012B09D05F
:101FA400D2F8B0500E680123B34025EA0303C2F807
:101FB400B03028E0D2F8B0600B68012505FA03F3CD
:101FC4003343C2F8B0300B68092B0ED90668B269E6
:101FD40003EB43031B3B07259D4022EA05058A6862
:101FE40002FA03F32B43B3610DE00668726901330F
:101FF40003EB430307259D4022EA05058A6802FA9C
:1020040003F32B4373610368B3F1A04F04D04E4A2A
:10201400934203D14D4D02E04C4D00E04C4D0A6813
:10202400102A03D1AE6816F4000F0BD0112A03D185
:10203400AE6816F0807F05D0122A75D1AA6812F412
:10204400800F73D1B3F1A04F03D103F580730193D3
:1020540014E03D4A934203D14FF0A04301930DE0B5
:102064003C4A934202D13C4B019307E03A4A9342E3
:1020740002D1384B019301E0002301930268936875
:1020840003F00303012B04D1136813F0010F00D0F4
:102094000124002C3AD1019E56B1B36803F0030326
:1020A400012B04D1336813F0010F00D001246CBB61
:1020B4000B68102B17D1B2F1A04F14D1AB6843F4C5
:1020C4000003AB60254B1B68254AB3FBF2F20A23DD
:1020D40003FB02F3009302E0009B013B0093009B8F
:1020E400002BF9D125E0112B08D1B2F1A04F05D175
:1020F400AB6843F08073AB6000231AE0122B17D156
:10210400AB6843F48003AB60002312E0436C43F0FC
:102114002003436401230CE0436C43F02003436435
:10212400012306E0002304E0002302E0002300E092
:102134000023002280F84020184600E0022017B057
:1021440070BC704700F0FF83000100500003005092
:10215400000700500004005000050050000000205B
:1021640040420F0000B587B07148724B03600023F2
:102174004360836001220261C26143620363C262FD
:10218400C3600F2101624263082242618361836359
:10219400FFF7B4FC18B14C216748FEF7C7FA0123D6
:1021A40000930193002303930293049305936946D8
:1021B4005F48FFF703FE18B159215F48FEF7B6FAEE
:1021C400032300930223019369465948FFF7F6FD60
:1021D40018B162215848FEF7A9FA04230093032397
:1021E400019369465248FFF7E9FD18B16B21524843
:1021F400FEF79CFA012300930423019369464C489B
:10220400FFF7DCFD18B174214B48FEF78FFA052364
:102214000093019369464648FFF7D0FD18B17D212C
:102224004548FEF783FA0623009301936946404824
:10223400FFF7C4FD18B186213F48FEF777FA012362
:1022440000930723019369463948FFF7B7FD18B196
:102254008F213948FEF76AFA072300930823019374
:1022640069463348FFF7AAFD18B198213248FEF7B2
:102274005DFA082300930923019369462C48FFF76C
:102284009DFD18B1A1212C48FEF750FA01230093BB
:102294000A23019369462648FFF790FD18B1AA2145
:1022A4002548FEF743FA092300930B23019369465B
:1022B4001F48FFF783FD18B1B3211F48FEF736FA14
:1022C4000B2300930C23019369461948FFF776FD0D
:1022D40018B1BC211848FEF729FA012300930D23F5
:1022E400019369461248FFF769FD18B1C5211248E8
:1022F400FEF71CFA0C2300930E23019369460C4845
:10230400FFF75CFD18B1CE210B48FEF70FFA0E2340
:1023140000930F23019369460548FFF74FFD18B159
:10232400D7210548FEF702FA07B05DF804FB00BFA9
:102334009400002000010050E82400080268264BA5
:102344009A4247D170B586B00446244B5A6942F08C
:1023540080525A615B6903F080530093009B3F23D2
:102364000193032602960025039501A91C48FFF753
:10237400DDF9D02301930296039501A94FF0904013
:10238400FFF7D4F940F6040301930296039501A9DB
:102394001448FFF7CBF91448144B0360456085607B
:1023A4008023C3604FF4807303614FF480634361FF
:1023B400202383614FF40053C361FEF73DFB20B13A
:1023C40040F211110A48FEF7B1F9074BE3635C626E
:1023D40006B070BD704700BF0001005000100240FD
:1023E4000008004800040048E800002008040240F7
:1023F400E824000800B583B00A4B5A6942F002028F
:102404005A615B6903F002030193019B00221146A8
:102414003820FEF735FA3820FEF764FA03B05DF889
:1024240004FB00BF00100240DFF834D0002103E0B9
:102434000C4B5B58435004310B480C4B42189A42E6
:10244400F6D30B4A02E0002342F8043B094B9A42BC
:10245400F9D3FFF747FAFDF7EDFEFEF7BBF9FEE708
:1024640000000120FC2400080000002004000020DB
:10247400040000202C010020FEE70000F8B500BF96
:10248400F8BC08BC9E467047F8B500BFF8BC08BC51
:042494009E467047A9
:102498005372632F6D61696E2E630000010203049D
:1024A80005060708090A0B0C0D0E0F100203040598
:1024B800060708090A0B0C0D0E0F1010000000008B
:1024C80000000000010203040607080900000000DC
:1024D800010203045372632F75736172742E6300D3
:0C24E8005372632F6164632E63000000D8
:0424F40001020008D9
:0424F800D9010008FE
:0424FC0000127A0050
:040000050800242D9E
:00000001FF
